{
	"loop.sol": {
		"loop": {
			"abi": [
				{
					"inputs": [],
					"name": "Loop_for",
					"outputs": [],
					"stateMutability": "pure",
					"type": "function"
				}
			],
			"devdoc": {
				"kind": "dev",
				"methods": {},
				"version": 1
			},
			"evm": {
				"assembly": "    /* \"loop.sol\":60:566  contract loop {... */\n  mstore(0x40, 0x80)\n  callvalue\n  dup1\n  iszero\n  tag_1\n  jumpi\n  0x00\n  dup1\n  revert\ntag_1:\n  pop\n  dataSize(sub_0)\n  dup1\n  dataOffset(sub_0)\n  0x00\n  codecopy\n  0x00\n  return\nstop\n\nsub_0: assembly {\n        /* \"loop.sol\":60:566  contract loop {... */\n      mstore(0x40, 0x80)\n      callvalue\n      dup1\n      iszero\n      tag_1\n      jumpi\n      0x00\n      dup1\n      revert\n    tag_1:\n      pop\n      jumpi(tag_2, lt(calldatasize, 0x04))\n      shr(0xe0, calldataload(0x00))\n      dup1\n      0x7efc3d91\n      eq\n      tag_3\n      jumpi\n    tag_2:\n      0x00\n      dup1\n      revert\n        /* \"loop.sol\":81:563  function Loop_for() pure public {... */\n    tag_3:\n      tag_4\n      tag_5\n      jump\t// in\n    tag_4:\n      stop\n    tag_5:\n        /* \"loop.sol\":151:160  uint256 i */\n      0x00\n        /* \"loop.sol\":146:327  for (uint256 i = 0; i < 10 ; i++) {... */\n    tag_7:\n        /* \"loop.sol\":170:172  10 */\n      0x0a\n        /* \"loop.sol\":166:167  i */\n      dup2\n        /* \"loop.sol\":166:172  i < 10 */\n      lt\n        /* \"loop.sol\":146:327  for (uint256 i = 0; i < 10 ; i++) {... */\n      iszero\n      tag_8\n      jumpi\n        /* \"loop.sol\":204:205  3 */\n      0x03\n        /* \"loop.sol\":199:200  i */\n      dup2\n        /* \"loop.sol\":199:205  i == 3 */\n      sub\n        /* \"loop.sol\":195:250  if (i == 3){... */\n      iszero\n        /* \"loop.sol\":225:233  continue */\n      tag_9\n        /* \"loop.sol\":195:250  if (i == 3){... */\n      jumpi\n        /* \"loop.sol\":273:274  5 */\n      0x05\n        /* \"loop.sol\":268:269  i */\n      dup2\n        /* \"loop.sol\":268:274  i == 5 */\n      sub\n        /* \"loop.sol\":264:316  if (i == 5){... */\n      iszero\n        /* \"loop.sol\":294:299  break */\n      tag_8\n        /* \"loop.sol\":264:316  if (i == 5){... */\n      jumpi\n        /* \"loop.sol\":146:327  for (uint256 i = 0; i < 10 ; i++) {... */\n    tag_9:\n        /* \"loop.sol\":175:178  i++ */\n      dup1\n      dup1\n      0x01\n      add\n      swap2\n      pop\n      pop\n        /* \"loop.sol\":146:327  for (uint256 i = 0; i < 10 ; i++) {... */\n      jump(tag_7)\n    tag_8:\n      pop\n        /* \"loop.sol\":362:371  uint256 j */\n      0x00\n        /* \"loop.sol\":383:399  uint256 security */\n      dup1\n        /* \"loop.sol\":410:556  while (j < 10) ... */\n    tag_12:\n        /* \"loop.sol\":421:423  10 */\n      0x0a\n        /* \"loop.sol\":417:418  j */\n      dup3\n        /* \"loop.sol\":417:423  j < 10 */\n      lt\n        /* \"loop.sol\":410:556  while (j < 10) ... */\n      iszero\n      tag_13\n      jumpi\n        /* \"loop.sol\":450:453  j++ */\n      dup2\n      dup1\n      tag_14\n      swap1\n      tag_15\n      jump\t// in\n    tag_14:\n      swap3\n      pop\n      pop\n        /* \"loop.sol\":476:478  10 */\n      0x0a\n        /* \"loop.sol\":472:473  j */\n      dup3\n        /* \"loop.sol\":472:478  j > 10 */\n      gt\n        /* \"loop.sol\":498:503  break */\n      tag_13\n        /* \"loop.sol\":468:519  if (j > 10){... */\n      jumpi\n        /* \"loop.sol\":534:544  security++ */\n      dup1\n      dup1\n      tag_17\n      swap1\n      tag_15\n      jump\t// in\n    tag_17:\n      swap2\n      pop\n      pop\n        /* \"loop.sol\":410:556  while (j < 10) ... */\n      jump(tag_12)\n    tag_13:\n        /* \"loop.sol\":113:563  {... */\n      pop\n      pop\n        /* \"loop.sol\":81:563  function Loop_for() pure public {... */\n      jump\t// out\n        /* \"#utility.yul\":7:187   */\n    tag_18:\n        /* \"#utility.yul\":55:132   */\n      0x4e487b7100000000000000000000000000000000000000000000000000000000\n        /* \"#utility.yul\":52:53   */\n      0x00\n        /* \"#utility.yul\":45:133   */\n      mstore\n        /* \"#utility.yul\":152:156   */\n      0x11\n        /* \"#utility.yul\":149:150   */\n      0x04\n        /* \"#utility.yul\":142:157   */\n      mstore\n        /* \"#utility.yul\":176:180   */\n      0x24\n        /* \"#utility.yul\":173:174   */\n      0x00\n        /* \"#utility.yul\":166:181   */\n      revert\n        /* \"#utility.yul\":193:270   */\n    tag_19:\n        /* \"#utility.yul\":230:237   */\n      0x00\n        /* \"#utility.yul\":259:264   */\n      dup2\n        /* \"#utility.yul\":248:264   */\n      swap1\n      pop\n        /* \"#utility.yul\":193:270   */\n      swap2\n      swap1\n      pop\n      jump\t// out\n        /* \"#utility.yul\":276:509   */\n    tag_15:\n        /* \"#utility.yul\":315:318   */\n      0x00\n        /* \"#utility.yul\":338:362   */\n      tag_24\n        /* \"#utility.yul\":356:361   */\n      dup3\n        /* \"#utility.yul\":338:362   */\n      tag_19\n      jump\t// in\n    tag_24:\n        /* \"#utility.yul\":329:362   */\n      swap2\n      pop\n        /* \"#utility.yul\":384:450   */\n      0xffffffffffffffffffffffffffffffffffffffffffffffffffffffffffffffff\n        /* \"#utility.yul\":377:382   */\n      dup3\n        /* \"#utility.yul\":374:451   */\n      sub\n        /* \"#utility.yul\":371:474   */\n      tag_25\n      jumpi\n        /* \"#utility.yul\":454:472   */\n      tag_26\n      tag_18\n      jump\t// in\n    tag_26:\n        /* \"#utility.yul\":371:474   */\n    tag_25:\n        /* \"#utility.yul\":501:502   */\n      0x01\n        /* \"#utility.yul\":494:499   */\n      dup3\n        /* \"#utility.yul\":490:503   */\n      add\n        /* \"#utility.yul\":483:503   */\n      swap1\n      pop\n        /* \"#utility.yul\":276:509   */\n      swap2\n      swap1\n      pop\n      jump\t// out\n\n    auxdata: 0xa2646970667358221220b99259f122478d4709dc58cca5376a97d588ca2cb82cca126573eb23ab8611f264736f6c63430008180033\n}\n",
				"bytecode": {
					"linkReferences": {},
					"object": "608060405234801561000f575f80fd5b5061014f8061001d5f395ff3fe608060405234801561000f575f80fd5b5060043610610029575f3560e01c80637efc3d911461002d575b5f80fd5b610035610037565b005b5f5b600a811015610062576003810315610055576005810315610062575b8080600101915050610039565b505f805b600a82101561009857818061007a906100d2565b925050600a8211610098578080610090906100d2565b915050610066565b5050565b7f4e487b71000000000000000000000000000000000000000000000000000000005f52601160045260245ffd5b5f819050919050565b5f6100dc826100c9565b91507fffffffffffffffffffffffffffffffffffffffffffffffffffffffffffffffff820361010e5761010d61009c565b5b60018201905091905056fea2646970667358221220b99259f122478d4709dc58cca5376a97d588ca2cb82cca126573eb23ab8611f264736f6c63430008180033",
					"opcodes": "PUSH1 0x80 PUSH1 0x40 MSTORE CALLVALUE DUP1 ISZERO PUSH2 0xF JUMPI PUSH0 DUP1 REVERT JUMPDEST POP PUSH2 0x14F DUP1 PUSH2 0x1D PUSH0 CODECOPY PUSH0 RETURN INVALID PUSH1 0x80 PUSH1 0x40 MSTORE CALLVALUE DUP1 ISZERO PUSH2 0xF JUMPI PUSH0 DUP1 REVERT JUMPDEST POP PUSH1 0x4 CALLDATASIZE LT PUSH2 0x29 JUMPI PUSH0 CALLDATALOAD PUSH1 0xE0 SHR DUP1 PUSH4 0x7EFC3D91 EQ PUSH2 0x2D JUMPI JUMPDEST PUSH0 DUP1 REVERT JUMPDEST PUSH2 0x35 PUSH2 0x37 JUMP JUMPDEST STOP JUMPDEST PUSH0 JUMPDEST PUSH1 0xA DUP2 LT ISZERO PUSH2 0x62 JUMPI PUSH1 0x3 DUP2 SUB ISZERO PUSH2 0x55 JUMPI PUSH1 0x5 DUP2 SUB ISZERO PUSH2 0x62 JUMPI JUMPDEST DUP1 DUP1 PUSH1 0x1 ADD SWAP2 POP POP PUSH2 0x39 JUMP JUMPDEST POP PUSH0 DUP1 JUMPDEST PUSH1 0xA DUP3 LT ISZERO PUSH2 0x98 JUMPI DUP2 DUP1 PUSH2 0x7A SWAP1 PUSH2 0xD2 JUMP JUMPDEST SWAP3 POP POP PUSH1 0xA DUP3 GT PUSH2 0x98 JUMPI DUP1 DUP1 PUSH2 0x90 SWAP1 PUSH2 0xD2 JUMP JUMPDEST SWAP2 POP POP PUSH2 0x66 JUMP JUMPDEST POP POP JUMP JUMPDEST PUSH32 0x4E487B7100000000000000000000000000000000000000000000000000000000 PUSH0 MSTORE PUSH1 0x11 PUSH1 0x4 MSTORE PUSH1 0x24 PUSH0 REVERT JUMPDEST PUSH0 DUP2 SWAP1 POP SWAP2 SWAP1 POP JUMP JUMPDEST PUSH0 PUSH2 0xDC DUP3 PUSH2 0xC9 JUMP JUMPDEST SWAP2 POP PUSH32 0xFFFFFFFFFFFFFFFFFFFFFFFFFFFFFFFFFFFFFFFFFFFFFFFFFFFFFFFFFFFFFFFF DUP3 SUB PUSH2 0x10E JUMPI PUSH2 0x10D PUSH2 0x9C JUMP JUMPDEST JUMPDEST PUSH1 0x1 DUP3 ADD SWAP1 POP SWAP2 SWAP1 POP JUMP INVALID LOG2 PUSH5 0x6970667358 0x22 SLT KECCAK256 0xB9 SWAP3 MSIZE CALL 0x22 SELFBALANCE DUP14 SELFBALANCE MULMOD 0xDC PC 0xCC 0xA5 CALLDATACOPY PUSH11 0x97D588CA2CB82CCA126573 0xEB 0x23 0xAB DUP7 GT CALLCODE PUSH5 0x736F6C6343 STOP ADDMOD XOR STOP CALLER "
				},
				"gasEstimates": {
					"creation": {
						"codeDepositCost": "67000",
						"executionCost": "115",
						"totalCost": "67115"
					},
					"external": {
						"Loop_for()": "infinite"
					}
				},
				"methodIdentifiers": {
					"Loop_for()": "7efc3d91"
				}
			},
			"storageLayout": {
				"storage": [],
				"types": null
			},
			"userdoc": {
				"kind": "user",
				"methods": {},
				"version": 1
			}
		}
	}
}