{
	"variables.sol": {
		"Variables_Nativas": {
			"abi": [
				{
					"inputs": [
						{
							"internalType": "string",
							"name": "_lastName",
							"type": "string"
						}
					],
					"stateMutability": "nonpayable",
					"type": "constructor"
				},
				{
					"inputs": [],
					"name": "address_var",
					"outputs": [
						{
							"internalType": "address",
							"name": "",
							"type": "address"
						}
					],
					"stateMutability": "view",
					"type": "function"
				},
				{
					"inputs": [],
					"name": "getBytes",
					"outputs": [
						{
							"internalType": "bytes1",
							"name": "",
							"type": "bytes1"
						}
					],
					"stateMutability": "view",
					"type": "function"
				},
				{
					"inputs": [],
					"name": "getName",
					"outputs": [
						{
							"internalType": "string",
							"name": "",
							"type": "string"
						}
					],
					"stateMutability": "view",
					"type": "function"
				},
				{
					"inputs": [],
					"name": "int_256",
					"outputs": [
						{
							"internalType": "int256",
							"name": "",
							"type": "int256"
						}
					],
					"stateMutability": "view",
					"type": "function"
				},
				{
					"inputs": [],
					"name": "int_8",
					"outputs": [
						{
							"internalType": "int8",
							"name": "",
							"type": "int8"
						}
					],
					"stateMutability": "view",
					"type": "function"
				},
				{
					"inputs": [],
					"name": "uint_256",
					"outputs": [
						{
							"internalType": "uint256",
							"name": "",
							"type": "uint256"
						}
					],
					"stateMutability": "view",
					"type": "function"
				},
				{
					"inputs": [],
					"name": "uint_8",
					"outputs": [
						{
							"internalType": "uint8",
							"name": "",
							"type": "uint8"
						}
					],
					"stateMutability": "view",
					"type": "function"
				}
			],
			"devdoc": {
				"kind": "dev",
				"methods": {},
				"version": 1
			},
			"evm": {
				"assembly": "    /* \"variables.sol\":128:1517  contract Variables_Nativas {... */\n  mstore(0x40, 0x80)\n    /* \"variables.sol\":719:720  1 */\n  0x01\n    /* \"variables.sol\":697:720  uint8 public uint_8 = 1 */\n  dup1\n  exp(0x0100, 0x00)\n  dup2\n  sload\n  dup2\n  0xff\n  mul\n  not\n  and\n  swap1\n  dup4\n  0xff\n  and\n  mul\n  or\n  swap1\n  sstore\n  pop\n    /* \"variables.sol\":753:756  234 */\n  0xea\n    /* \"variables.sol\":727:756  uint256 public uint_256 = 234 */\n  0x02\n  sstore\n    /* \"variables.sol\":925:927  -1 */\n  0xffffffffffffffffffffffffffffffffffffffffffffffffffffffffffffffff\n    /* \"variables.sol\":905:927  int8 public int_8 = -1 */\n  0x03\n  exp(0x0100, 0x00)\n  dup2\n  sload\n  dup2\n  0xff\n  mul\n  not\n  and\n  swap1\n  dup4\n  0x00\n  signextend\n  0xff\n  and\n  mul\n  or\n  swap1\n  sstore\n  pop\n    /* \"variables.sol\":959:962  456 */\n  0x01c8\n    /* \"variables.sol\":935:962  int256 public int_256 = 456 */\n  0x04\n  sstore\n    /* \"variables.sol\":1100:1142  0x598af29d0D00d2Ce33D6E12b0E43FB2742dA2090 */\n  0x598af29d0d00d2ce33d6e12b0e43fb2742da2090\n    /* \"variables.sol\":1071:1142  address public address_var = 0x598af29d0D00d2Ce33D6E12b0E43FB2742dA2090 */\n  0x05\n  exp(0x0100, 0x00)\n  dup2\n  sload\n  dup2\n  0xffffffffffffffffffffffffffffffffffffffff\n  mul\n  not\n  and\n  swap1\n  dup4\n  0xffffffffffffffffffffffffffffffffffffffff\n  and\n  mul\n  or\n  swap1\n  sstore\n  pop\n    /* \"variables.sol\":1309:1313  0xb5 */\n  0xb5\n    /* \"variables.sol\":1294:1313  bytes1 a_var = 0xb5 */\n  0xf8\n  shl\n  0x05\n  exp(0x0100, 0x14)\n  dup2\n  sload\n  dup2\n  0xff\n  mul\n  not\n  and\n  swap1\n  dup4\n  0xf8\n  shr\n  mul\n  or\n  swap1\n  sstore\n  pop\n    /* \"variables.sol\":1371:1375  0x56 */\n  0x56\n    /* \"variables.sol\":1356:1375  bytes1 b_var = 0x56 */\n  0xf8\n  shl\n  0x05\n  exp(0x0100, 0x15)\n  dup2\n  sload\n  dup2\n  0xff\n  mul\n  not\n  and\n  swap1\n  dup4\n  0xf8\n  shr\n  mul\n  or\n  swap1\n  sstore\n  pop\n    /* \"variables.sol\":262:397  constructor(string memory _lastName) {... */\n  callvalue\n  dup1\n  iszero\n  tag_1\n  jumpi\n  0x00\n  dup1\n  revert\ntag_1:\n  pop\n  mload(0x40)\n  sub(codesize, bytecodeSize)\n  dup1\n  bytecodeSize\n  dup4\n  codecopy\n  dup2\n  dup2\n  add\n  0x40\n  mstore\n  dup2\n  add\n  swap1\n  tag_2\n  swap2\n  swap1\n  tag_3\n  jump\t// in\ntag_2:\n    /* \"variables.sol\":349:358  _lastName */\n  dup1\n    /* \"variables.sol\":321:359  string.concat(\"Johan\", \" \", _lastName) */\n  add(0x20, mload(0x40))\n  tag_6\n  swap2\n  swap1\n  tag_7\n  jump\t// in\ntag_6:\n  mload(0x40)\n  0x20\n  dup2\n  dup4\n  sub\n  sub\n  dup2\n  mstore\n  swap1\n  0x40\n  mstore\n    /* \"variables.sol\":310:318  fullName */\n  0x00\n    /* \"variables.sol\":310:359  fullName = string.concat(\"Johan\", \" \", _lastName) */\n  swap1\n  dup2\n  tag_8\n  swap2\n  swap1\n  tag_9\n  jump\t// in\ntag_8:\n  pop\n    /* \"variables.sol\":262:397  constructor(string memory _lastName) {... */\n  pop\n    /* \"variables.sol\":128:1517  contract Variables_Nativas {... */\n  jump(tag_10)\n    /* \"#utility.yul\":7:82   */\ntag_11:\n    /* \"#utility.yul\":40:46   */\n  0x00\n    /* \"#utility.yul\":73:75   */\n  0x40\n    /* \"#utility.yul\":67:76   */\n  mload\n    /* \"#utility.yul\":57:76   */\n  swap1\n  pop\n    /* \"#utility.yul\":7:82   */\n  swap1\n  jump\t// out\n    /* \"#utility.yul\":88:205   */\ntag_12:\n    /* \"#utility.yul\":197:198   */\n  0x00\n    /* \"#utility.yul\":194:195   */\n  dup1\n    /* \"#utility.yul\":187:199   */\n  revert\n    /* \"#utility.yul\":211:328   */\ntag_13:\n    /* \"#utility.yul\":320:321   */\n  0x00\n    /* \"#utility.yul\":317:318   */\n  dup1\n    /* \"#utility.yul\":310:322   */\n  revert\n    /* \"#utility.yul\":334:451   */\ntag_14:\n    /* \"#utility.yul\":443:444   */\n  0x00\n    /* \"#utility.yul\":440:441   */\n  dup1\n    /* \"#utility.yul\":433:445   */\n  revert\n    /* \"#utility.yul\":457:574   */\ntag_15:\n    /* \"#utility.yul\":566:567   */\n  0x00\n    /* \"#utility.yul\":563:564   */\n  dup1\n    /* \"#utility.yul\":556:568   */\n  revert\n    /* \"#utility.yul\":580:682   */\ntag_16:\n    /* \"#utility.yul\":621:627   */\n  0x00\n    /* \"#utility.yul\":672:674   */\n  0x1f\n    /* \"#utility.yul\":668:675   */\n  not\n    /* \"#utility.yul\":663:665   */\n  0x1f\n    /* \"#utility.yul\":656:661   */\n  dup4\n    /* \"#utility.yul\":652:666   */\n  add\n    /* \"#utility.yul\":648:676   */\n  and\n    /* \"#utility.yul\":638:676   */\n  swap1\n  pop\n    /* \"#utility.yul\":580:682   */\n  swap2\n  swap1\n  pop\n  jump\t// out\n    /* \"#utility.yul\":688:868   */\ntag_17:\n    /* \"#utility.yul\":736:813   */\n  0x4e487b7100000000000000000000000000000000000000000000000000000000\n    /* \"#utility.yul\":733:734   */\n  0x00\n    /* \"#utility.yul\":726:814   */\n  mstore\n    /* \"#utility.yul\":833:837   */\n  0x41\n    /* \"#utility.yul\":830:831   */\n  0x04\n    /* \"#utility.yul\":823:838   */\n  mstore\n    /* \"#utility.yul\":857:861   */\n  0x24\n    /* \"#utility.yul\":854:855   */\n  0x00\n    /* \"#utility.yul\":847:862   */\n  revert\n    /* \"#utility.yul\":874:1155   */\ntag_18:\n    /* \"#utility.yul\":957:984   */\n  tag_56\n    /* \"#utility.yul\":979:983   */\n  dup3\n    /* \"#utility.yul\":957:984   */\n  tag_16\n  jump\t// in\ntag_56:\n    /* \"#utility.yul\":949:955   */\n  dup2\n    /* \"#utility.yul\":945:985   */\n  add\n    /* \"#utility.yul\":1087:1093   */\n  dup2\n    /* \"#utility.yul\":1075:1085   */\n  dup2\n    /* \"#utility.yul\":1072:1094   */\n  lt\n    /* \"#utility.yul\":1051:1069   */\n  0xffffffffffffffff\n    /* \"#utility.yul\":1039:1049   */\n  dup3\n    /* \"#utility.yul\":1036:1070   */\n  gt\n    /* \"#utility.yul\":1033:1095   */\n  or\n    /* \"#utility.yul\":1030:1118   */\n  iszero\n  tag_57\n  jumpi\n    /* \"#utility.yul\":1098:1116   */\n  tag_58\n  tag_17\n  jump\t// in\ntag_58:\n    /* \"#utility.yul\":1030:1118   */\ntag_57:\n    /* \"#utility.yul\":1138:1148   */\n  dup1\n    /* \"#utility.yul\":1134:1136   */\n  0x40\n    /* \"#utility.yul\":1127:1149   */\n  mstore\n    /* \"#utility.yul\":917:1155   */\n  pop\n    /* \"#utility.yul\":874:1155   */\n  pop\n  pop\n  jump\t// out\n    /* \"#utility.yul\":1161:1290   */\ntag_19:\n    /* \"#utility.yul\":1195:1201   */\n  0x00\n    /* \"#utility.yul\":1222:1242   */\n  tag_60\n  tag_11\n  jump\t// in\ntag_60:\n    /* \"#utility.yul\":1212:1242   */\n  swap1\n  pop\n    /* \"#utility.yul\":1251:1284   */\n  tag_61\n    /* \"#utility.yul\":1279:1283   */\n  dup3\n    /* \"#utility.yul\":1271:1277   */\n  dup3\n    /* \"#utility.yul\":1251:1284   */\n  tag_18\n  jump\t// in\ntag_61:\n    /* \"#utility.yul\":1161:1290   */\n  swap2\n  swap1\n  pop\n  jump\t// out\n    /* \"#utility.yul\":1296:1604   */\ntag_20:\n    /* \"#utility.yul\":1358:1362   */\n  0x00\n    /* \"#utility.yul\":1448:1466   */\n  0xffffffffffffffff\n    /* \"#utility.yul\":1440:1446   */\n  dup3\n    /* \"#utility.yul\":1437:1467   */\n  gt\n    /* \"#utility.yul\":1434:1490   */\n  iszero\n  tag_63\n  jumpi\n    /* \"#utility.yul\":1470:1488   */\n  tag_64\n  tag_17\n  jump\t// in\ntag_64:\n    /* \"#utility.yul\":1434:1490   */\ntag_63:\n    /* \"#utility.yul\":1508:1537   */\n  tag_65\n    /* \"#utility.yul\":1530:1536   */\n  dup3\n    /* \"#utility.yul\":1508:1537   */\n  tag_16\n  jump\t// in\ntag_65:\n    /* \"#utility.yul\":1500:1537   */\n  swap1\n  pop\n    /* \"#utility.yul\":1592:1596   */\n  0x20\n    /* \"#utility.yul\":1586:1590   */\n  dup2\n    /* \"#utility.yul\":1582:1597   */\n  add\n    /* \"#utility.yul\":1574:1597   */\n  swap1\n  pop\n    /* \"#utility.yul\":1296:1604   */\n  swap2\n  swap1\n  pop\n  jump\t// out\n    /* \"#utility.yul\":1610:1856   */\ntag_21:\n    /* \"#utility.yul\":1691:1692   */\n  0x00\n    /* \"#utility.yul\":1701:1814   */\ntag_67:\n    /* \"#utility.yul\":1715:1721   */\n  dup4\n    /* \"#utility.yul\":1712:1713   */\n  dup2\n    /* \"#utility.yul\":1709:1722   */\n  lt\n    /* \"#utility.yul\":1701:1814   */\n  iszero\n  tag_69\n  jumpi\n    /* \"#utility.yul\":1800:1801   */\n  dup1\n    /* \"#utility.yul\":1795:1798   */\n  dup3\n    /* \"#utility.yul\":1791:1802   */\n  add\n    /* \"#utility.yul\":1785:1803   */\n  mload\n    /* \"#utility.yul\":1781:1782   */\n  dup2\n    /* \"#utility.yul\":1776:1779   */\n  dup5\n    /* \"#utility.yul\":1772:1783   */\n  add\n    /* \"#utility.yul\":1765:1804   */\n  mstore\n    /* \"#utility.yul\":1737:1739   */\n  0x20\n    /* \"#utility.yul\":1734:1735   */\n  dup2\n    /* \"#utility.yul\":1730:1740   */\n  add\n    /* \"#utility.yul\":1725:1740   */\n  swap1\n  pop\n    /* \"#utility.yul\":1701:1814   */\n  jump(tag_67)\ntag_69:\n    /* \"#utility.yul\":1848:1849   */\n  0x00\n    /* \"#utility.yul\":1839:1845   */\n  dup5\n    /* \"#utility.yul\":1834:1837   */\n  dup5\n    /* \"#utility.yul\":1830:1846   */\n  add\n    /* \"#utility.yul\":1823:1850   */\n  mstore\n    /* \"#utility.yul\":1672:1856   */\n  pop\n    /* \"#utility.yul\":1610:1856   */\n  pop\n  pop\n  pop\n  jump\t// out\n    /* \"#utility.yul\":1862:2296   */\ntag_22:\n    /* \"#utility.yul\":1951:1956   */\n  0x00\n    /* \"#utility.yul\":1976:2042   */\n  tag_71\n    /* \"#utility.yul\":1992:2041   */\n  tag_72\n    /* \"#utility.yul\":2034:2040   */\n  dup5\n    /* \"#utility.yul\":1992:2041   */\n  tag_20\n  jump\t// in\ntag_72:\n    /* \"#utility.yul\":1976:2042   */\n  tag_19\n  jump\t// in\ntag_71:\n    /* \"#utility.yul\":1967:2042   */\n  swap1\n  pop\n    /* \"#utility.yul\":2065:2071   */\n  dup3\n    /* \"#utility.yul\":2058:2063   */\n  dup2\n    /* \"#utility.yul\":2051:2072   */\n  mstore\n    /* \"#utility.yul\":2103:2107   */\n  0x20\n    /* \"#utility.yul\":2096:2101   */\n  dup2\n    /* \"#utility.yul\":2092:2108   */\n  add\n    /* \"#utility.yul\":2141:2144   */\n  dup5\n    /* \"#utility.yul\":2132:2138   */\n  dup5\n    /* \"#utility.yul\":2127:2130   */\n  dup5\n    /* \"#utility.yul\":2123:2139   */\n  add\n    /* \"#utility.yul\":2120:2145   */\n  gt\n    /* \"#utility.yul\":2117:2229   */\n  iszero\n  tag_73\n  jumpi\n    /* \"#utility.yul\":2148:2227   */\n  tag_74\n  tag_15\n  jump\t// in\ntag_74:\n    /* \"#utility.yul\":2117:2229   */\ntag_73:\n    /* \"#utility.yul\":2238:2290   */\n  tag_75\n    /* \"#utility.yul\":2283:2289   */\n  dup5\n    /* \"#utility.yul\":2278:2281   */\n  dup3\n    /* \"#utility.yul\":2273:2276   */\n  dup6\n    /* \"#utility.yul\":2238:2290   */\n  tag_21\n  jump\t// in\ntag_75:\n    /* \"#utility.yul\":1957:2296   */\n  pop\n    /* \"#utility.yul\":1862:2296   */\n  swap4\n  swap3\n  pop\n  pop\n  pop\n  jump\t// out\n    /* \"#utility.yul\":2316:2671   */\ntag_23:\n    /* \"#utility.yul\":2383:2388   */\n  0x00\n    /* \"#utility.yul\":2432:2435   */\n  dup3\n    /* \"#utility.yul\":2425:2429   */\n  0x1f\n    /* \"#utility.yul\":2417:2423   */\n  dup4\n    /* \"#utility.yul\":2413:2430   */\n  add\n    /* \"#utility.yul\":2409:2436   */\n  slt\n    /* \"#utility.yul\":2399:2521   */\n  tag_77\n  jumpi\n    /* \"#utility.yul\":2440:2519   */\n  tag_78\n  tag_14\n  jump\t// in\ntag_78:\n    /* \"#utility.yul\":2399:2521   */\ntag_77:\n    /* \"#utility.yul\":2550:2556   */\n  dup2\n    /* \"#utility.yul\":2544:2557   */\n  mload\n    /* \"#utility.yul\":2575:2665   */\n  tag_79\n    /* \"#utility.yul\":2661:2664   */\n  dup5\n    /* \"#utility.yul\":2653:2659   */\n  dup3\n    /* \"#utility.yul\":2646:2650   */\n  0x20\n    /* \"#utility.yul\":2638:2644   */\n  dup7\n    /* \"#utility.yul\":2634:2651   */\n  add\n    /* \"#utility.yul\":2575:2665   */\n  tag_22\n  jump\t// in\ntag_79:\n    /* \"#utility.yul\":2566:2665   */\n  swap2\n  pop\n    /* \"#utility.yul\":2389:2671   */\n  pop\n    /* \"#utility.yul\":2316:2671   */\n  swap3\n  swap2\n  pop\n  pop\n  jump\t// out\n    /* \"#utility.yul\":2677:3201   */\ntag_3:\n    /* \"#utility.yul\":2757:2763   */\n  0x00\n    /* \"#utility.yul\":2806:2808   */\n  0x20\n    /* \"#utility.yul\":2794:2803   */\n  dup3\n    /* \"#utility.yul\":2785:2792   */\n  dup5\n    /* \"#utility.yul\":2781:2804   */\n  sub\n    /* \"#utility.yul\":2777:2809   */\n  slt\n    /* \"#utility.yul\":2774:2893   */\n  iszero\n  tag_81\n  jumpi\n    /* \"#utility.yul\":2812:2891   */\n  tag_82\n  tag_12\n  jump\t// in\ntag_82:\n    /* \"#utility.yul\":2774:2893   */\ntag_81:\n    /* \"#utility.yul\":2953:2954   */\n  0x00\n    /* \"#utility.yul\":2942:2951   */\n  dup3\n    /* \"#utility.yul\":2938:2955   */\n  add\n    /* \"#utility.yul\":2932:2956   */\n  mload\n    /* \"#utility.yul\":2983:3001   */\n  0xffffffffffffffff\n    /* \"#utility.yul\":2975:2981   */\n  dup2\n    /* \"#utility.yul\":2972:3002   */\n  gt\n    /* \"#utility.yul\":2969:3086   */\n  iszero\n  tag_83\n  jumpi\n    /* \"#utility.yul\":3005:3084   */\n  tag_84\n  tag_13\n  jump\t// in\ntag_84:\n    /* \"#utility.yul\":2969:3086   */\ntag_83:\n    /* \"#utility.yul\":3110:3184   */\n  tag_85\n    /* \"#utility.yul\":3176:3183   */\n  dup5\n    /* \"#utility.yul\":3167:3173   */\n  dup3\n    /* \"#utility.yul\":3156:3165   */\n  dup6\n    /* \"#utility.yul\":3152:3174   */\n  add\n    /* \"#utility.yul\":3110:3184   */\n  tag_23\n  jump\t// in\ntag_85:\n    /* \"#utility.yul\":3100:3184   */\n  swap2\n  pop\n    /* \"#utility.yul\":2903:3194   */\n  pop\n    /* \"#utility.yul\":2677:3201   */\n  swap3\n  swap2\n  pop\n  pop\n  jump\t// out\n    /* \"#utility.yul\":3207:3389   */\ntag_24:\n    /* \"#utility.yul\":3375:3382   */\n  0x4a6f68616e000000000000000000000000000000000000000000000000000000\n    /* \"#utility.yul\":3370:3373   */\n  dup2\n    /* \"#utility.yul\":3363:3383   */\n  mstore\n    /* \"#utility.yul\":3207:3389   */\n  pop\n  jump\t// out\n    /* \"#utility.yul\":3395:3573   */\ntag_25:\n    /* \"#utility.yul\":3563:3566   */\n  0x2000000000000000000000000000000000000000000000000000000000000000\n    /* \"#utility.yul\":3558:3561   */\n  dup2\n    /* \"#utility.yul\":3551:3567   */\n  mstore\n    /* \"#utility.yul\":3395:3573   */\n  pop\n  jump\t// out\n    /* \"#utility.yul\":3579:3678   */\ntag_26:\n    /* \"#utility.yul\":3631:3637   */\n  0x00\n    /* \"#utility.yul\":3665:3670   */\n  dup2\n    /* \"#utility.yul\":3659:3671   */\n  mload\n    /* \"#utility.yul\":3649:3671   */\n  swap1\n  pop\n    /* \"#utility.yul\":3579:3678   */\n  swap2\n  swap1\n  pop\n  jump\t// out\n    /* \"#utility.yul\":3684:3832   */\ntag_27:\n    /* \"#utility.yul\":3786:3797   */\n  0x00\n    /* \"#utility.yul\":3823:3826   */\n  dup2\n    /* \"#utility.yul\":3808:3826   */\n  swap1\n  pop\n    /* \"#utility.yul\":3684:3832   */\n  swap3\n  swap2\n  pop\n  pop\n  jump\t// out\n    /* \"#utility.yul\":3838:4228   */\ntag_28:\n    /* \"#utility.yul\":3944:3947   */\n  0x00\n    /* \"#utility.yul\":3972:4011   */\n  tag_91\n    /* \"#utility.yul\":4005:4010   */\n  dup3\n    /* \"#utility.yul\":3972:4011   */\n  tag_26\n  jump\t// in\ntag_91:\n    /* \"#utility.yul\":4027:4116   */\n  tag_92\n    /* \"#utility.yul\":4109:4115   */\n  dup2\n    /* \"#utility.yul\":4104:4107   */\n  dup6\n    /* \"#utility.yul\":4027:4116   */\n  tag_27\n  jump\t// in\ntag_92:\n    /* \"#utility.yul\":4020:4116   */\n  swap4\n  pop\n    /* \"#utility.yul\":4125:4190   */\n  tag_93\n    /* \"#utility.yul\":4183:4189   */\n  dup2\n    /* \"#utility.yul\":4178:4181   */\n  dup6\n    /* \"#utility.yul\":4171:4175   */\n  0x20\n    /* \"#utility.yul\":4164:4169   */\n  dup7\n    /* \"#utility.yul\":4160:4176   */\n  add\n    /* \"#utility.yul\":4125:4190   */\n  tag_21\n  jump\t// in\ntag_93:\n    /* \"#utility.yul\":4215:4221   */\n  dup1\n    /* \"#utility.yul\":4210:4213   */\n  dup5\n    /* \"#utility.yul\":4206:4222   */\n  add\n    /* \"#utility.yul\":4199:4222   */\n  swap2\n  pop\n    /* \"#utility.yul\":3948:4228   */\n  pop\n    /* \"#utility.yul\":3838:4228   */\n  swap3\n  swap2\n  pop\n  pop\n  jump\t// out\n    /* \"#utility.yul\":4234:5037   */\ntag_7:\n    /* \"#utility.yul\":4546:4549   */\n  0x00\n    /* \"#utility.yul\":4561:4698   */\n  tag_95\n    /* \"#utility.yul\":4694:4697   */\n  dup3\n    /* \"#utility.yul\":4561:4698   */\n  tag_24\n  jump\t// in\ntag_95:\n    /* \"#utility.yul\":4723:4724   */\n  0x05\n    /* \"#utility.yul\":4718:4721   */\n  dup3\n    /* \"#utility.yul\":4714:4725   */\n  add\n    /* \"#utility.yul\":4707:4725   */\n  swap2\n  pop\n    /* \"#utility.yul\":4735:4872   */\n  tag_96\n    /* \"#utility.yul\":4868:4871   */\n  dup3\n    /* \"#utility.yul\":4735:4872   */\n  tag_25\n  jump\t// in\ntag_96:\n    /* \"#utility.yul\":4897:4898   */\n  0x01\n    /* \"#utility.yul\":4892:4895   */\n  dup3\n    /* \"#utility.yul\":4888:4899   */\n  add\n    /* \"#utility.yul\":4881:4899   */\n  swap2\n  pop\n    /* \"#utility.yul\":4916:5011   */\n  tag_97\n    /* \"#utility.yul\":5007:5010   */\n  dup3\n    /* \"#utility.yul\":4998:5004   */\n  dup5\n    /* \"#utility.yul\":4916:5011   */\n  tag_28\n  jump\t// in\ntag_97:\n    /* \"#utility.yul\":4909:5011   */\n  swap2\n  pop\n    /* \"#utility.yul\":5028:5031   */\n  dup2\n    /* \"#utility.yul\":5021:5031   */\n  swap1\n  pop\n    /* \"#utility.yul\":4234:5037   */\n  swap3\n  swap2\n  pop\n  pop\n  jump\t// out\n    /* \"#utility.yul\":5043:5223   */\ntag_29:\n    /* \"#utility.yul\":5091:5168   */\n  0x4e487b7100000000000000000000000000000000000000000000000000000000\n    /* \"#utility.yul\":5088:5089   */\n  0x00\n    /* \"#utility.yul\":5081:5169   */\n  mstore\n    /* \"#utility.yul\":5188:5192   */\n  0x22\n    /* \"#utility.yul\":5185:5186   */\n  0x04\n    /* \"#utility.yul\":5178:5193   */\n  mstore\n    /* \"#utility.yul\":5212:5216   */\n  0x24\n    /* \"#utility.yul\":5209:5210   */\n  0x00\n    /* \"#utility.yul\":5202:5217   */\n  revert\n    /* \"#utility.yul\":5229:5549   */\ntag_30:\n    /* \"#utility.yul\":5273:5279   */\n  0x00\n    /* \"#utility.yul\":5310:5311   */\n  0x02\n    /* \"#utility.yul\":5304:5308   */\n  dup3\n    /* \"#utility.yul\":5300:5312   */\n  div\n    /* \"#utility.yul\":5290:5312   */\n  swap1\n  pop\n    /* \"#utility.yul\":5357:5358   */\n  0x01\n    /* \"#utility.yul\":5351:5355   */\n  dup3\n    /* \"#utility.yul\":5347:5359   */\n  and\n    /* \"#utility.yul\":5378:5396   */\n  dup1\n    /* \"#utility.yul\":5368:5449   */\n  tag_100\n  jumpi\n    /* \"#utility.yul\":5434:5438   */\n  0x7f\n    /* \"#utility.yul\":5426:5432   */\n  dup3\n    /* \"#utility.yul\":5422:5439   */\n  and\n    /* \"#utility.yul\":5412:5439   */\n  swap2\n  pop\n    /* \"#utility.yul\":5368:5449   */\ntag_100:\n    /* \"#utility.yul\":5496:5498   */\n  0x20\n    /* \"#utility.yul\":5488:5494   */\n  dup3\n    /* \"#utility.yul\":5485:5499   */\n  lt\n    /* \"#utility.yul\":5465:5483   */\n  dup2\n    /* \"#utility.yul\":5462:5500   */\n  sub\n    /* \"#utility.yul\":5459:5543   */\n  tag_101\n  jumpi\n    /* \"#utility.yul\":5515:5533   */\n  tag_102\n  tag_29\n  jump\t// in\ntag_102:\n    /* \"#utility.yul\":5459:5543   */\ntag_101:\n    /* \"#utility.yul\":5280:5549   */\n  pop\n    /* \"#utility.yul\":5229:5549   */\n  swap2\n  swap1\n  pop\n  jump\t// out\n    /* \"#utility.yul\":5555:5696   */\ntag_31:\n    /* \"#utility.yul\":5604:5608   */\n  0x00\n    /* \"#utility.yul\":5627:5630   */\n  dup2\n    /* \"#utility.yul\":5619:5630   */\n  swap1\n  pop\n    /* \"#utility.yul\":5650:5653   */\n  dup2\n    /* \"#utility.yul\":5647:5648   */\n  0x00\n    /* \"#utility.yul\":5640:5654   */\n  mstore\n    /* \"#utility.yul\":5684:5688   */\n  0x20\n    /* \"#utility.yul\":5681:5682   */\n  0x00\n    /* \"#utility.yul\":5671:5689   */\n  keccak256\n    /* \"#utility.yul\":5663:5689   */\n  swap1\n  pop\n    /* \"#utility.yul\":5555:5696   */\n  swap2\n  swap1\n  pop\n  jump\t// out\n    /* \"#utility.yul\":5702:5795   */\ntag_32:\n    /* \"#utility.yul\":5739:5745   */\n  0x00\n    /* \"#utility.yul\":5786:5788   */\n  0x20\n    /* \"#utility.yul\":5781:5783   */\n  0x1f\n    /* \"#utility.yul\":5774:5779   */\n  dup4\n    /* \"#utility.yul\":5770:5784   */\n  add\n    /* \"#utility.yul\":5766:5789   */\n  div\n    /* \"#utility.yul\":5756:5789   */\n  swap1\n  pop\n    /* \"#utility.yul\":5702:5795   */\n  swap2\n  swap1\n  pop\n  jump\t// out\n    /* \"#utility.yul\":5801:5908   */\ntag_33:\n    /* \"#utility.yul\":5845:5853   */\n  0x00\n    /* \"#utility.yul\":5895:5900   */\n  dup3\n    /* \"#utility.yul\":5889:5893   */\n  dup3\n    /* \"#utility.yul\":5885:5901   */\n  shl\n    /* \"#utility.yul\":5864:5901   */\n  swap1\n  pop\n    /* \"#utility.yul\":5801:5908   */\n  swap3\n  swap2\n  pop\n  pop\n  jump\t// out\n    /* \"#utility.yul\":5914:6307   */\ntag_34:\n    /* \"#utility.yul\":5983:5989   */\n  0x00\n    /* \"#utility.yul\":6033:6034   */\n  0x08\n    /* \"#utility.yul\":6021:6031   */\n  dup4\n    /* \"#utility.yul\":6017:6035   */\n  mul\n    /* \"#utility.yul\":6056:6153   */\n  tag_107\n    /* \"#utility.yul\":6086:6152   */\n  0xffffffffffffffffffffffffffffffffffffffffffffffffffffffffffffffff\n    /* \"#utility.yul\":6075:6084   */\n  dup3\n    /* \"#utility.yul\":6056:6153   */\n  tag_33\n  jump\t// in\ntag_107:\n    /* \"#utility.yul\":6174:6213   */\n  tag_108\n    /* \"#utility.yul\":6204:6212   */\n  dup7\n    /* \"#utility.yul\":6193:6202   */\n  dup4\n    /* \"#utility.yul\":6174:6213   */\n  tag_33\n  jump\t// in\ntag_108:\n    /* \"#utility.yul\":6162:6213   */\n  swap6\n  pop\n    /* \"#utility.yul\":6246:6250   */\n  dup1\n    /* \"#utility.yul\":6242:6251   */\n  not\n    /* \"#utility.yul\":6235:6240   */\n  dup5\n    /* \"#utility.yul\":6231:6252   */\n  and\n    /* \"#utility.yul\":6222:6252   */\n  swap4\n  pop\n    /* \"#utility.yul\":6295:6299   */\n  dup1\n    /* \"#utility.yul\":6285:6293   */\n  dup7\n    /* \"#utility.yul\":6281:6300   */\n  and\n    /* \"#utility.yul\":6274:6279   */\n  dup5\n    /* \"#utility.yul\":6271:6301   */\n  or\n    /* \"#utility.yul\":6261:6301   */\n  swap3\n  pop\n    /* \"#utility.yul\":5990:6307   */\n  pop\n  pop\n    /* \"#utility.yul\":5914:6307   */\n  swap4\n  swap3\n  pop\n  pop\n  pop\n  jump\t// out\n    /* \"#utility.yul\":6313:6390   */\ntag_35:\n    /* \"#utility.yul\":6350:6357   */\n  0x00\n    /* \"#utility.yul\":6379:6384   */\n  dup2\n    /* \"#utility.yul\":6368:6384   */\n  swap1\n  pop\n    /* \"#utility.yul\":6313:6390   */\n  swap2\n  swap1\n  pop\n  jump\t// out\n    /* \"#utility.yul\":6396:6456   */\ntag_36:\n    /* \"#utility.yul\":6424:6427   */\n  0x00\n    /* \"#utility.yul\":6445:6450   */\n  dup2\n    /* \"#utility.yul\":6438:6450   */\n  swap1\n  pop\n    /* \"#utility.yul\":6396:6456   */\n  swap2\n  swap1\n  pop\n  jump\t// out\n    /* \"#utility.yul\":6462:6604   */\ntag_37:\n    /* \"#utility.yul\":6512:6521   */\n  0x00\n    /* \"#utility.yul\":6545:6598   */\n  tag_112\n    /* \"#utility.yul\":6563:6597   */\n  tag_113\n    /* \"#utility.yul\":6572:6596   */\n  tag_114\n    /* \"#utility.yul\":6590:6595   */\n  dup5\n    /* \"#utility.yul\":6572:6596   */\n  tag_35\n  jump\t// in\ntag_114:\n    /* \"#utility.yul\":6563:6597   */\n  tag_36\n  jump\t// in\ntag_113:\n    /* \"#utility.yul\":6545:6598   */\n  tag_35\n  jump\t// in\ntag_112:\n    /* \"#utility.yul\":6532:6598   */\n  swap1\n  pop\n    /* \"#utility.yul\":6462:6604   */\n  swap2\n  swap1\n  pop\n  jump\t// out\n    /* \"#utility.yul\":6610:6685   */\ntag_38:\n    /* \"#utility.yul\":6653:6656   */\n  0x00\n    /* \"#utility.yul\":6674:6679   */\n  dup2\n    /* \"#utility.yul\":6667:6679   */\n  swap1\n  pop\n    /* \"#utility.yul\":6610:6685   */\n  swap2\n  swap1\n  pop\n  jump\t// out\n    /* \"#utility.yul\":6691:6960   */\ntag_39:\n    /* \"#utility.yul\":6801:6840   */\n  tag_117\n    /* \"#utility.yul\":6832:6839   */\n  dup4\n    /* \"#utility.yul\":6801:6840   */\n  tag_37\n  jump\t// in\ntag_117:\n    /* \"#utility.yul\":6862:6953   */\n  tag_118\n    /* \"#utility.yul\":6911:6952   */\n  tag_119\n    /* \"#utility.yul\":6935:6951   */\n  dup3\n    /* \"#utility.yul\":6911:6952   */\n  tag_38\n  jump\t// in\ntag_119:\n    /* \"#utility.yul\":6903:6909   */\n  dup5\n    /* \"#utility.yul\":6896:6900   */\n  dup5\n    /* \"#utility.yul\":6890:6901   */\n  sload\n    /* \"#utility.yul\":6862:6953   */\n  tag_34\n  jump\t// in\ntag_118:\n    /* \"#utility.yul\":6856:6860   */\n  dup3\n    /* \"#utility.yul\":6849:6954   */\n  sstore\n    /* \"#utility.yul\":6767:6960   */\n  pop\n    /* \"#utility.yul\":6691:6960   */\n  pop\n  pop\n  pop\n  jump\t// out\n    /* \"#utility.yul\":6966:7039   */\ntag_40:\n    /* \"#utility.yul\":7011:7014   */\n  0x00\n    /* \"#utility.yul\":6966:7039   */\n  swap1\n  jump\t// out\n    /* \"#utility.yul\":7045:7234   */\ntag_41:\n    /* \"#utility.yul\":7122:7154   */\n  tag_122\n  tag_40\n  jump\t// in\ntag_122:\n    /* \"#utility.yul\":7163:7228   */\n  tag_123\n    /* \"#utility.yul\":7221:7227   */\n  dup2\n    /* \"#utility.yul\":7213:7219   */\n  dup5\n    /* \"#utility.yul\":7207:7211   */\n  dup5\n    /* \"#utility.yul\":7163:7228   */\n  tag_39\n  jump\t// in\ntag_123:\n    /* \"#utility.yul\":7098:7234   */\n  pop\n    /* \"#utility.yul\":7045:7234   */\n  pop\n  pop\n  jump\t// out\n    /* \"#utility.yul\":7240:7426   */\ntag_42:\n    /* \"#utility.yul\":7300:7420   */\ntag_125:\n    /* \"#utility.yul\":7317:7320   */\n  dup2\n    /* \"#utility.yul\":7310:7315   */\n  dup2\n    /* \"#utility.yul\":7307:7321   */\n  lt\n    /* \"#utility.yul\":7300:7420   */\n  iszero\n  tag_127\n  jumpi\n    /* \"#utility.yul\":7371:7410   */\n  tag_128\n    /* \"#utility.yul\":7408:7409   */\n  0x00\n    /* \"#utility.yul\":7401:7406   */\n  dup3\n    /* \"#utility.yul\":7371:7410   */\n  tag_41\n  jump\t// in\ntag_128:\n    /* \"#utility.yul\":7344:7345   */\n  0x01\n    /* \"#utility.yul\":7337:7342   */\n  dup2\n    /* \"#utility.yul\":7333:7346   */\n  add\n    /* \"#utility.yul\":7324:7346   */\n  swap1\n  pop\n    /* \"#utility.yul\":7300:7420   */\n  jump(tag_125)\ntag_127:\n    /* \"#utility.yul\":7240:7426   */\n  pop\n  pop\n  jump\t// out\n    /* \"#utility.yul\":7432:7975   */\ntag_43:\n    /* \"#utility.yul\":7533:7535   */\n  0x1f\n    /* \"#utility.yul\":7528:7531   */\n  dup3\n    /* \"#utility.yul\":7525:7536   */\n  gt\n    /* \"#utility.yul\":7522:7968   */\n  iszero\n  tag_130\n  jumpi\n    /* \"#utility.yul\":7567:7605   */\n  tag_131\n    /* \"#utility.yul\":7599:7604   */\n  dup2\n    /* \"#utility.yul\":7567:7605   */\n  tag_31\n  jump\t// in\ntag_131:\n    /* \"#utility.yul\":7651:7680   */\n  tag_132\n    /* \"#utility.yul\":7669:7679   */\n  dup5\n    /* \"#utility.yul\":7651:7680   */\n  tag_32\n  jump\t// in\ntag_132:\n    /* \"#utility.yul\":7641:7649   */\n  dup2\n    /* \"#utility.yul\":7637:7681   */\n  add\n    /* \"#utility.yul\":7834:7836   */\n  0x20\n    /* \"#utility.yul\":7822:7832   */\n  dup6\n    /* \"#utility.yul\":7819:7837   */\n  lt\n    /* \"#utility.yul\":7816:7865   */\n  iszero\n  tag_133\n  jumpi\n    /* \"#utility.yul\":7855:7863   */\n  dup2\n    /* \"#utility.yul\":7840:7863   */\n  swap1\n  pop\n    /* \"#utility.yul\":7816:7865   */\ntag_133:\n    /* \"#utility.yul\":7878:7958   */\n  tag_134\n    /* \"#utility.yul\":7934:7956   */\n  tag_135\n    /* \"#utility.yul\":7952:7955   */\n  dup6\n    /* \"#utility.yul\":7934:7956   */\n  tag_32\n  jump\t// in\ntag_135:\n    /* \"#utility.yul\":7924:7932   */\n  dup4\n    /* \"#utility.yul\":7920:7957   */\n  add\n    /* \"#utility.yul\":7907:7918   */\n  dup3\n    /* \"#utility.yul\":7878:7958   */\n  tag_42\n  jump\t// in\ntag_134:\n    /* \"#utility.yul\":7537:7968   */\n  pop\n  pop\n    /* \"#utility.yul\":7522:7968   */\ntag_130:\n    /* \"#utility.yul\":7432:7975   */\n  pop\n  pop\n  pop\n  jump\t// out\n    /* \"#utility.yul\":7981:8098   */\ntag_44:\n    /* \"#utility.yul\":8035:8043   */\n  0x00\n    /* \"#utility.yul\":8085:8090   */\n  dup3\n    /* \"#utility.yul\":8079:8083   */\n  dup3\n    /* \"#utility.yul\":8075:8091   */\n  shr\n    /* \"#utility.yul\":8054:8091   */\n  swap1\n  pop\n    /* \"#utility.yul\":7981:8098   */\n  swap3\n  swap2\n  pop\n  pop\n  jump\t// out\n    /* \"#utility.yul\":8104:8273   */\ntag_45:\n    /* \"#utility.yul\":8148:8154   */\n  0x00\n    /* \"#utility.yul\":8181:8232   */\n  tag_138\n    /* \"#utility.yul\":8229:8230   */\n  0x00\n    /* \"#utility.yul\":8225:8231   */\n  not\n    /* \"#utility.yul\":8217:8222   */\n  dup5\n    /* \"#utility.yul\":8214:8215   */\n  0x08\n    /* \"#utility.yul\":8210:8223   */\n  mul\n    /* \"#utility.yul\":8181:8232   */\n  tag_44\n  jump\t// in\ntag_138:\n    /* \"#utility.yul\":8177:8233   */\n  not\n    /* \"#utility.yul\":8262:8266   */\n  dup1\n    /* \"#utility.yul\":8256:8260   */\n  dup4\n    /* \"#utility.yul\":8252:8267   */\n  and\n    /* \"#utility.yul\":8242:8267   */\n  swap2\n  pop\n    /* \"#utility.yul\":8155:8273   */\n  pop\n    /* \"#utility.yul\":8104:8273   */\n  swap3\n  swap2\n  pop\n  pop\n  jump\t// out\n    /* \"#utility.yul\":8278:8573   */\ntag_46:\n    /* \"#utility.yul\":8354:8358   */\n  0x00\n    /* \"#utility.yul\":8500:8529   */\n  tag_140\n    /* \"#utility.yul\":8525:8528   */\n  dup4\n    /* \"#utility.yul\":8519:8523   */\n  dup4\n    /* \"#utility.yul\":8500:8529   */\n  tag_45\n  jump\t// in\ntag_140:\n    /* \"#utility.yul\":8492:8529   */\n  swap2\n  pop\n    /* \"#utility.yul\":8562:8565   */\n  dup3\n    /* \"#utility.yul\":8559:8560   */\n  0x02\n    /* \"#utility.yul\":8555:8566   */\n  mul\n    /* \"#utility.yul\":8549:8553   */\n  dup3\n    /* \"#utility.yul\":8546:8567   */\n  or\n    /* \"#utility.yul\":8538:8567   */\n  swap1\n  pop\n    /* \"#utility.yul\":8278:8573   */\n  swap3\n  swap2\n  pop\n  pop\n  jump\t// out\n    /* \"#utility.yul\":8578:9973   */\ntag_9:\n    /* \"#utility.yul\":8695:8732   */\n  tag_142\n    /* \"#utility.yul\":8728:8731   */\n  dup3\n    /* \"#utility.yul\":8695:8732   */\n  tag_26\n  jump\t// in\ntag_142:\n    /* \"#utility.yul\":8797:8815   */\n  0xffffffffffffffff\n    /* \"#utility.yul\":8789:8795   */\n  dup2\n    /* \"#utility.yul\":8786:8816   */\n  gt\n    /* \"#utility.yul\":8783:8839   */\n  iszero\n  tag_143\n  jumpi\n    /* \"#utility.yul\":8819:8837   */\n  tag_144\n  tag_17\n  jump\t// in\ntag_144:\n    /* \"#utility.yul\":8783:8839   */\ntag_143:\n    /* \"#utility.yul\":8863:8901   */\n  tag_145\n    /* \"#utility.yul\":8895:8899   */\n  dup3\n    /* \"#utility.yul\":8889:8900   */\n  sload\n    /* \"#utility.yul\":8863:8901   */\n  tag_30\n  jump\t// in\ntag_145:\n    /* \"#utility.yul\":8948:9015   */\n  tag_146\n    /* \"#utility.yul\":9008:9014   */\n  dup3\n    /* \"#utility.yul\":9000:9006   */\n  dup3\n    /* \"#utility.yul\":8994:8998   */\n  dup6\n    /* \"#utility.yul\":8948:9015   */\n  tag_43\n  jump\t// in\ntag_146:\n    /* \"#utility.yul\":9042:9043   */\n  0x00\n    /* \"#utility.yul\":9066:9070   */\n  0x20\n    /* \"#utility.yul\":9053:9070   */\n  swap1\n  pop\n    /* \"#utility.yul\":9098:9100   */\n  0x1f\n    /* \"#utility.yul\":9090:9096   */\n  dup4\n    /* \"#utility.yul\":9087:9101   */\n  gt\n    /* \"#utility.yul\":9115:9116   */\n  0x01\n    /* \"#utility.yul\":9110:9728   */\n  dup2\n  eq\n  tag_148\n  jumpi\n    /* \"#utility.yul\":9772:9773   */\n  0x00\n    /* \"#utility.yul\":9789:9795   */\n  dup5\n    /* \"#utility.yul\":9786:9863   */\n  iszero\n  tag_149\n  jumpi\n    /* \"#utility.yul\":9838:9847   */\n  dup3\n    /* \"#utility.yul\":9833:9836   */\n  dup8\n    /* \"#utility.yul\":9829:9848   */\n  add\n    /* \"#utility.yul\":9823:9849   */\n  mload\n    /* \"#utility.yul\":9814:9849   */\n  swap1\n  pop\n    /* \"#utility.yul\":9786:9863   */\ntag_149:\n    /* \"#utility.yul\":9889:9956   */\n  tag_150\n    /* \"#utility.yul\":9949:9955   */\n  dup6\n    /* \"#utility.yul\":9942:9947   */\n  dup3\n    /* \"#utility.yul\":9889:9956   */\n  tag_46\n  jump\t// in\ntag_150:\n    /* \"#utility.yul\":9883:9887   */\n  dup7\n    /* \"#utility.yul\":9876:9957   */\n  sstore\n    /* \"#utility.yul\":9745:9967   */\n  pop\n    /* \"#utility.yul\":9080:9967   */\n  jump(tag_147)\n    /* \"#utility.yul\":9110:9728   */\ntag_148:\n    /* \"#utility.yul\":9162:9166   */\n  0x1f\n    /* \"#utility.yul\":9158:9167   */\n  not\n    /* \"#utility.yul\":9150:9156   */\n  dup5\n    /* \"#utility.yul\":9146:9168   */\n  and\n    /* \"#utility.yul\":9196:9233   */\n  tag_151\n    /* \"#utility.yul\":9228:9232   */\n  dup7\n    /* \"#utility.yul\":9196:9233   */\n  tag_31\n  jump\t// in\ntag_151:\n    /* \"#utility.yul\":9255:9256   */\n  0x00\n    /* \"#utility.yul\":9269:9477   */\ntag_152:\n    /* \"#utility.yul\":9283:9290   */\n  dup3\n    /* \"#utility.yul\":9280:9281   */\n  dup2\n    /* \"#utility.yul\":9277:9291   */\n  lt\n    /* \"#utility.yul\":9269:9477   */\n  iszero\n  tag_154\n  jumpi\n    /* \"#utility.yul\":9362:9371   */\n  dup5\n    /* \"#utility.yul\":9357:9360   */\n  dup10\n    /* \"#utility.yul\":9353:9372   */\n  add\n    /* \"#utility.yul\":9347:9373   */\n  mload\n    /* \"#utility.yul\":9339:9345   */\n  dup3\n    /* \"#utility.yul\":9332:9374   */\n  sstore\n    /* \"#utility.yul\":9413:9414   */\n  0x01\n    /* \"#utility.yul\":9405:9411   */\n  dup3\n    /* \"#utility.yul\":9401:9415   */\n  add\n    /* \"#utility.yul\":9391:9415   */\n  swap2\n  pop\n    /* \"#utility.yul\":9460:9462   */\n  0x20\n    /* \"#utility.yul\":9449:9458   */\n  dup6\n    /* \"#utility.yul\":9445:9463   */\n  add\n    /* \"#utility.yul\":9432:9463   */\n  swap5\n  pop\n    /* \"#utility.yul\":9306:9310   */\n  0x20\n    /* \"#utility.yul\":9303:9304   */\n  dup2\n    /* \"#utility.yul\":9299:9311   */\n  add\n    /* \"#utility.yul\":9294:9311   */\n  swap1\n  pop\n    /* \"#utility.yul\":9269:9477   */\n  jump(tag_152)\ntag_154:\n    /* \"#utility.yul\":9505:9511   */\n  dup7\n    /* \"#utility.yul\":9496:9503   */\n  dup4\n    /* \"#utility.yul\":9493:9512   */\n  lt\n    /* \"#utility.yul\":9490:9669   */\n  iszero\n  tag_155\n  jumpi\n    /* \"#utility.yul\":9563:9572   */\n  dup5\n    /* \"#utility.yul\":9558:9561   */\n  dup10\n    /* \"#utility.yul\":9554:9573   */\n  add\n    /* \"#utility.yul\":9548:9574   */\n  mload\n    /* \"#utility.yul\":9606:9654   */\n  tag_156\n    /* \"#utility.yul\":9648:9652   */\n  0x1f\n    /* \"#utility.yul\":9640:9646   */\n  dup10\n    /* \"#utility.yul\":9636:9653   */\n  and\n    /* \"#utility.yul\":9625:9634   */\n  dup3\n    /* \"#utility.yul\":9606:9654   */\n  tag_45\n  jump\t// in\ntag_156:\n    /* \"#utility.yul\":9598:9604   */\n  dup4\n    /* \"#utility.yul\":9591:9655   */\n  sstore\n    /* \"#utility.yul\":9513:9669   */\n  pop\n    /* \"#utility.yul\":9490:9669   */\ntag_155:\n    /* \"#utility.yul\":9715:9716   */\n  0x01\n    /* \"#utility.yul\":9711:9712   */\n  0x02\n    /* \"#utility.yul\":9703:9709   */\n  dup9\n    /* \"#utility.yul\":9699:9713   */\n  mul\n    /* \"#utility.yul\":9695:9717   */\n  add\n    /* \"#utility.yul\":9689:9693   */\n  dup9\n    /* \"#utility.yul\":9682:9718   */\n  sstore\n    /* \"#utility.yul\":9117:9728   */\n  pop\n  pop\n  pop\n    /* \"#utility.yul\":9080:9967   */\ntag_147:\n  pop\n    /* \"#utility.yul\":8670:9973   */\n  pop\n  pop\n  pop\n    /* \"#utility.yul\":8578:9973   */\n  pop\n  pop\n  jump\t// out\n    /* \"variables.sol\":128:1517  contract Variables_Nativas {... */\ntag_10:\n  dataSize(sub_0)\n  dup1\n  dataOffset(sub_0)\n  0x00\n  codecopy\n  0x00\n  return\nstop\n\nsub_0: assembly {\n        /* \"variables.sol\":128:1517  contract Variables_Nativas {... */\n      mstore(0x40, 0x80)\n      callvalue\n      dup1\n      iszero\n      tag_1\n      jumpi\n      0x00\n      dup1\n      revert\n    tag_1:\n      pop\n      jumpi(tag_2, lt(calldatasize, 0x04))\n      shr(0xe0, calldataload(0x00))\n      dup1\n      0xce410d53\n      gt\n      tag_10\n      jumpi\n      dup1\n      0xce410d53\n      eq\n      tag_6\n      jumpi\n      dup1\n      0xdf77a62e\n      eq\n      tag_7\n      jumpi\n      dup1\n      0xf7ae9171\n      eq\n      tag_8\n      jumpi\n      dup1\n      0xf950fc6d\n      eq\n      tag_9\n      jumpi\n      jump(tag_2)\n    tag_10:\n      dup1\n      0x0bcd3b33\n      eq\n      tag_3\n      jumpi\n      dup1\n      0x17d7de7c\n      eq\n      tag_4\n      jumpi\n      dup1\n      0x38304639\n      eq\n      tag_5\n      jumpi\n    tag_2:\n      0x00\n      dup1\n      revert\n        /* \"variables.sol\":1435:1512  function getBytes() public view returns(bytes1){... */\n    tag_3:\n      tag_11\n      tag_12\n      jump\t// in\n    tag_11:\n      mload(0x40)\n      tag_13\n      swap2\n      swap1\n      tag_14\n      jump\t// in\n    tag_13:\n      mload(0x40)\n      dup1\n      swap2\n      sub\n      swap1\n      return\n        /* \"variables.sol\":405:494  function getName() public view returns (string memory) {... */\n    tag_4:\n      tag_15\n      tag_16\n      jump\t// in\n    tag_15:\n      mload(0x40)\n      tag_17\n      swap2\n      swap1\n      tag_18\n      jump\t// in\n    tag_17:\n      mload(0x40)\n      dup1\n      swap2\n      sub\n      swap1\n      return\n        /* \"variables.sol\":1071:1142  address public address_var = 0x598af29d0D00d2Ce33D6E12b0E43FB2742dA2090 */\n    tag_5:\n      tag_19\n      tag_20\n      jump\t// in\n    tag_19:\n      mload(0x40)\n      tag_21\n      swap2\n      swap1\n      tag_22\n      jump\t// in\n    tag_21:\n      mload(0x40)\n      dup1\n      swap2\n      sub\n      swap1\n      return\n        /* \"variables.sol\":727:756  uint256 public uint_256 = 234 */\n    tag_6:\n      tag_23\n      tag_24\n      jump\t// in\n    tag_23:\n      mload(0x40)\n      tag_25\n      swap2\n      swap1\n      tag_26\n      jump\t// in\n    tag_25:\n      mload(0x40)\n      dup1\n      swap2\n      sub\n      swap1\n      return\n        /* \"variables.sol\":905:927  int8 public int_8 = -1 */\n    tag_7:\n      tag_27\n      tag_28\n      jump\t// in\n    tag_27:\n      mload(0x40)\n      tag_29\n      swap2\n      swap1\n      tag_30\n      jump\t// in\n    tag_29:\n      mload(0x40)\n      dup1\n      swap2\n      sub\n      swap1\n      return\n        /* \"variables.sol\":935:962  int256 public int_256 = 456 */\n    tag_8:\n      tag_31\n      tag_32\n      jump\t// in\n    tag_31:\n      mload(0x40)\n      tag_33\n      swap2\n      swap1\n      tag_34\n      jump\t// in\n    tag_33:\n      mload(0x40)\n      dup1\n      swap2\n      sub\n      swap1\n      return\n        /* \"variables.sol\":697:720  uint8 public uint_8 = 1 */\n    tag_9:\n      tag_35\n      tag_36\n      jump\t// in\n    tag_35:\n      mload(0x40)\n      tag_37\n      swap2\n      swap1\n      tag_38\n      jump\t// in\n    tag_37:\n      mload(0x40)\n      dup1\n      swap2\n      sub\n      swap1\n      return\n        /* \"variables.sol\":1435:1512  function getBytes() public view returns(bytes1){... */\n    tag_12:\n        /* \"variables.sol\":1475:1481  bytes1 */\n      0x00\n        /* \"variables.sol\":1497:1502  c_var */\n      0x05\n      0x16\n      swap1\n      sload\n      swap1\n      0x0100\n      exp\n      swap1\n      div\n      0xf8\n      shl\n        /* \"variables.sol\":1490:1502  return c_var */\n      swap1\n      pop\n        /* \"variables.sol\":1435:1512  function getBytes() public view returns(bytes1){... */\n      swap1\n      jump\t// out\n        /* \"variables.sol\":405:494  function getName() public view returns (string memory) {... */\n    tag_16:\n        /* \"variables.sol\":445:458  string memory */\n      0x60\n        /* \"variables.sol\":478:486  fullName */\n      0x00\n        /* \"variables.sol\":471:486  return fullName */\n      dup1\n      sload\n      tag_41\n      swap1\n      tag_42\n      jump\t// in\n    tag_41:\n      dup1\n      0x1f\n      add\n      0x20\n      dup1\n      swap2\n      div\n      mul\n      0x20\n      add\n      mload(0x40)\n      swap1\n      dup2\n      add\n      0x40\n      mstore\n      dup1\n      swap3\n      swap2\n      swap1\n      dup2\n      dup2\n      mstore\n      0x20\n      add\n      dup3\n      dup1\n      sload\n      tag_43\n      swap1\n      tag_42\n      jump\t// in\n    tag_43:\n      dup1\n      iszero\n      tag_44\n      jumpi\n      dup1\n      0x1f\n      lt\n      tag_45\n      jumpi\n      0x0100\n      dup1\n      dup4\n      sload\n      div\n      mul\n      dup4\n      mstore\n      swap2\n      0x20\n      add\n      swap2\n      jump(tag_44)\n    tag_45:\n      dup3\n      add\n      swap2\n      swap1\n      0x00\n      mstore\n      keccak256(0x00, 0x20)\n      swap1\n    tag_46:\n      dup2\n      sload\n      dup2\n      mstore\n      swap1\n      0x01\n      add\n      swap1\n      0x20\n      add\n      dup1\n      dup4\n      gt\n      tag_46\n      jumpi\n      dup3\n      swap1\n      sub\n      0x1f\n      and\n      dup3\n      add\n      swap2\n    tag_44:\n      pop\n      pop\n      pop\n      pop\n      pop\n      swap1\n      pop\n        /* \"variables.sol\":405:494  function getName() public view returns (string memory) {... */\n      swap1\n      jump\t// out\n        /* \"variables.sol\":1071:1142  address public address_var = 0x598af29d0D00d2Ce33D6E12b0E43FB2742dA2090 */\n    tag_20:\n      0x05\n      0x00\n      swap1\n      sload\n      swap1\n      0x0100\n      exp\n      swap1\n      div\n      0xffffffffffffffffffffffffffffffffffffffff\n      and\n      dup2\n      jump\t// out\n        /* \"variables.sol\":727:756  uint256 public uint_256 = 234 */\n    tag_24:\n      sload(0x02)\n      dup2\n      jump\t// out\n        /* \"variables.sol\":905:927  int8 public int_8 = -1 */\n    tag_28:\n      0x03\n      0x00\n      swap1\n      sload\n      swap1\n      0x0100\n      exp\n      swap1\n      div\n      0x00\n      signextend\n      dup2\n      jump\t// out\n        /* \"variables.sol\":935:962  int256 public int_256 = 456 */\n    tag_32:\n      sload(0x04)\n      dup2\n      jump\t// out\n        /* \"variables.sol\":697:720  uint8 public uint_8 = 1 */\n    tag_36:\n      0x01\n      0x00\n      swap1\n      sload\n      swap1\n      0x0100\n      exp\n      swap1\n      div\n      0xff\n      and\n      dup2\n      jump\t// out\n        /* \"#utility.yul\":7:156   */\n    tag_47:\n        /* \"#utility.yul\":43:50   */\n      0x00\n        /* \"#utility.yul\":83:149   */\n      0xff00000000000000000000000000000000000000000000000000000000000000\n        /* \"#utility.yul\":76:81   */\n      dup3\n        /* \"#utility.yul\":72:150   */\n      and\n        /* \"#utility.yul\":61:150   */\n      swap1\n      pop\n        /* \"#utility.yul\":7:156   */\n      swap2\n      swap1\n      pop\n      jump\t// out\n        /* \"#utility.yul\":162:277   */\n    tag_48:\n        /* \"#utility.yul\":247:270   */\n      tag_69\n        /* \"#utility.yul\":264:269   */\n      dup2\n        /* \"#utility.yul\":247:270   */\n      tag_47\n      jump\t// in\n    tag_69:\n        /* \"#utility.yul\":242:245   */\n      dup3\n        /* \"#utility.yul\":235:271   */\n      mstore\n        /* \"#utility.yul\":162:277   */\n      pop\n      pop\n      jump\t// out\n        /* \"#utility.yul\":283:501   */\n    tag_14:\n        /* \"#utility.yul\":374:378   */\n      0x00\n        /* \"#utility.yul\":412:414   */\n      0x20\n        /* \"#utility.yul\":401:410   */\n      dup3\n        /* \"#utility.yul\":397:415   */\n      add\n        /* \"#utility.yul\":389:415   */\n      swap1\n      pop\n        /* \"#utility.yul\":425:494   */\n      tag_71\n        /* \"#utility.yul\":491:492   */\n      0x00\n        /* \"#utility.yul\":480:489   */\n      dup4\n        /* \"#utility.yul\":476:493   */\n      add\n        /* \"#utility.yul\":467:473   */\n      dup5\n        /* \"#utility.yul\":425:494   */\n      tag_48\n      jump\t// in\n    tag_71:\n        /* \"#utility.yul\":283:501   */\n      swap3\n      swap2\n      pop\n      pop\n      jump\t// out\n        /* \"#utility.yul\":507:606   */\n    tag_49:\n        /* \"#utility.yul\":559:565   */\n      0x00\n        /* \"#utility.yul\":593:598   */\n      dup2\n        /* \"#utility.yul\":587:599   */\n      mload\n        /* \"#utility.yul\":577:599   */\n      swap1\n      pop\n        /* \"#utility.yul\":507:606   */\n      swap2\n      swap1\n      pop\n      jump\t// out\n        /* \"#utility.yul\":612:781   */\n    tag_50:\n        /* \"#utility.yul\":696:707   */\n      0x00\n        /* \"#utility.yul\":730:736   */\n      dup3\n        /* \"#utility.yul\":725:728   */\n      dup3\n        /* \"#utility.yul\":718:737   */\n      mstore\n        /* \"#utility.yul\":770:774   */\n      0x20\n        /* \"#utility.yul\":765:768   */\n      dup3\n        /* \"#utility.yul\":761:775   */\n      add\n        /* \"#utility.yul\":746:775   */\n      swap1\n      pop\n        /* \"#utility.yul\":612:781   */\n      swap3\n      swap2\n      pop\n      pop\n      jump\t// out\n        /* \"#utility.yul\":787:1033   */\n    tag_51:\n        /* \"#utility.yul\":868:869   */\n      0x00\n        /* \"#utility.yul\":878:991   */\n    tag_75:\n        /* \"#utility.yul\":892:898   */\n      dup4\n        /* \"#utility.yul\":889:890   */\n      dup2\n        /* \"#utility.yul\":886:899   */\n      lt\n        /* \"#utility.yul\":878:991   */\n      iszero\n      tag_77\n      jumpi\n        /* \"#utility.yul\":977:978   */\n      dup1\n        /* \"#utility.yul\":972:975   */\n      dup3\n        /* \"#utility.yul\":968:979   */\n      add\n        /* \"#utility.yul\":962:980   */\n      mload\n        /* \"#utility.yul\":958:959   */\n      dup2\n        /* \"#utility.yul\":953:956   */\n      dup5\n        /* \"#utility.yul\":949:960   */\n      add\n        /* \"#utility.yul\":942:981   */\n      mstore\n        /* \"#utility.yul\":914:916   */\n      0x20\n        /* \"#utility.yul\":911:912   */\n      dup2\n        /* \"#utility.yul\":907:917   */\n      add\n        /* \"#utility.yul\":902:917   */\n      swap1\n      pop\n        /* \"#utility.yul\":878:991   */\n      jump(tag_75)\n    tag_77:\n        /* \"#utility.yul\":1025:1026   */\n      0x00\n        /* \"#utility.yul\":1016:1022   */\n      dup5\n        /* \"#utility.yul\":1011:1014   */\n      dup5\n        /* \"#utility.yul\":1007:1023   */\n      add\n        /* \"#utility.yul\":1000:1027   */\n      mstore\n        /* \"#utility.yul\":849:1033   */\n      pop\n        /* \"#utility.yul\":787:1033   */\n      pop\n      pop\n      pop\n      jump\t// out\n        /* \"#utility.yul\":1039:1141   */\n    tag_52:\n        /* \"#utility.yul\":1080:1086   */\n      0x00\n        /* \"#utility.yul\":1131:1133   */\n      0x1f\n        /* \"#utility.yul\":1127:1134   */\n      not\n        /* \"#utility.yul\":1122:1124   */\n      0x1f\n        /* \"#utility.yul\":1115:1120   */\n      dup4\n        /* \"#utility.yul\":1111:1125   */\n      add\n        /* \"#utility.yul\":1107:1135   */\n      and\n        /* \"#utility.yul\":1097:1135   */\n      swap1\n      pop\n        /* \"#utility.yul\":1039:1141   */\n      swap2\n      swap1\n      pop\n      jump\t// out\n        /* \"#utility.yul\":1147:1524   */\n    tag_53:\n        /* \"#utility.yul\":1235:1238   */\n      0x00\n        /* \"#utility.yul\":1263:1302   */\n      tag_80\n        /* \"#utility.yul\":1296:1301   */\n      dup3\n        /* \"#utility.yul\":1263:1302   */\n      tag_49\n      jump\t// in\n    tag_80:\n        /* \"#utility.yul\":1318:1389   */\n      tag_81\n        /* \"#utility.yul\":1382:1388   */\n      dup2\n        /* \"#utility.yul\":1377:1380   */\n      dup6\n        /* \"#utility.yul\":1318:1389   */\n      tag_50\n      jump\t// in\n    tag_81:\n        /* \"#utility.yul\":1311:1389   */\n      swap4\n      pop\n        /* \"#utility.yul\":1398:1463   */\n      tag_82\n        /* \"#utility.yul\":1456:1462   */\n      dup2\n        /* \"#utility.yul\":1451:1454   */\n      dup6\n        /* \"#utility.yul\":1444:1448   */\n      0x20\n        /* \"#utility.yul\":1437:1442   */\n      dup7\n        /* \"#utility.yul\":1433:1449   */\n      add\n        /* \"#utility.yul\":1398:1463   */\n      tag_51\n      jump\t// in\n    tag_82:\n        /* \"#utility.yul\":1488:1517   */\n      tag_83\n        /* \"#utility.yul\":1510:1516   */\n      dup2\n        /* \"#utility.yul\":1488:1517   */\n      tag_52\n      jump\t// in\n    tag_83:\n        /* \"#utility.yul\":1483:1486   */\n      dup5\n        /* \"#utility.yul\":1479:1518   */\n      add\n        /* \"#utility.yul\":1472:1518   */\n      swap2\n      pop\n        /* \"#utility.yul\":1239:1524   */\n      pop\n        /* \"#utility.yul\":1147:1524   */\n      swap3\n      swap2\n      pop\n      pop\n      jump\t// out\n        /* \"#utility.yul\":1530:1843   */\n    tag_18:\n        /* \"#utility.yul\":1643:1647   */\n      0x00\n        /* \"#utility.yul\":1681:1683   */\n      0x20\n        /* \"#utility.yul\":1670:1679   */\n      dup3\n        /* \"#utility.yul\":1666:1684   */\n      add\n        /* \"#utility.yul\":1658:1684   */\n      swap1\n      pop\n        /* \"#utility.yul\":1730:1739   */\n      dup2\n        /* \"#utility.yul\":1724:1728   */\n      dup2\n        /* \"#utility.yul\":1720:1740   */\n      sub\n        /* \"#utility.yul\":1716:1717   */\n      0x00\n        /* \"#utility.yul\":1705:1714   */\n      dup4\n        /* \"#utility.yul\":1701:1718   */\n      add\n        /* \"#utility.yul\":1694:1741   */\n      mstore\n        /* \"#utility.yul\":1758:1836   */\n      tag_85\n        /* \"#utility.yul\":1831:1835   */\n      dup2\n        /* \"#utility.yul\":1822:1828   */\n      dup5\n        /* \"#utility.yul\":1758:1836   */\n      tag_53\n      jump\t// in\n    tag_85:\n        /* \"#utility.yul\":1750:1836   */\n      swap1\n      pop\n        /* \"#utility.yul\":1530:1843   */\n      swap3\n      swap2\n      pop\n      pop\n      jump\t// out\n        /* \"#utility.yul\":1849:1975   */\n    tag_54:\n        /* \"#utility.yul\":1886:1893   */\n      0x00\n        /* \"#utility.yul\":1926:1968   */\n      0xffffffffffffffffffffffffffffffffffffffff\n        /* \"#utility.yul\":1919:1924   */\n      dup3\n        /* \"#utility.yul\":1915:1969   */\n      and\n        /* \"#utility.yul\":1904:1969   */\n      swap1\n      pop\n        /* \"#utility.yul\":1849:1975   */\n      swap2\n      swap1\n      pop\n      jump\t// out\n        /* \"#utility.yul\":1981:2077   */\n    tag_55:\n        /* \"#utility.yul\":2018:2025   */\n      0x00\n        /* \"#utility.yul\":2047:2071   */\n      tag_88\n        /* \"#utility.yul\":2065:2070   */\n      dup3\n        /* \"#utility.yul\":2047:2071   */\n      tag_54\n      jump\t// in\n    tag_88:\n        /* \"#utility.yul\":2036:2071   */\n      swap1\n      pop\n        /* \"#utility.yul\":1981:2077   */\n      swap2\n      swap1\n      pop\n      jump\t// out\n        /* \"#utility.yul\":2083:2201   */\n    tag_56:\n        /* \"#utility.yul\":2170:2194   */\n      tag_90\n        /* \"#utility.yul\":2188:2193   */\n      dup2\n        /* \"#utility.yul\":2170:2194   */\n      tag_55\n      jump\t// in\n    tag_90:\n        /* \"#utility.yul\":2165:2168   */\n      dup3\n        /* \"#utility.yul\":2158:2195   */\n      mstore\n        /* \"#utility.yul\":2083:2201   */\n      pop\n      pop\n      jump\t// out\n        /* \"#utility.yul\":2207:2429   */\n    tag_22:\n        /* \"#utility.yul\":2300:2304   */\n      0x00\n        /* \"#utility.yul\":2338:2340   */\n      0x20\n        /* \"#utility.yul\":2327:2336   */\n      dup3\n        /* \"#utility.yul\":2323:2341   */\n      add\n        /* \"#utility.yul\":2315:2341   */\n      swap1\n      pop\n        /* \"#utility.yul\":2351:2422   */\n      tag_92\n        /* \"#utility.yul\":2419:2420   */\n      0x00\n        /* \"#utility.yul\":2408:2417   */\n      dup4\n        /* \"#utility.yul\":2404:2421   */\n      add\n        /* \"#utility.yul\":2395:2401   */\n      dup5\n        /* \"#utility.yul\":2351:2422   */\n      tag_56\n      jump\t// in\n    tag_92:\n        /* \"#utility.yul\":2207:2429   */\n      swap3\n      swap2\n      pop\n      pop\n      jump\t// out\n        /* \"#utility.yul\":2435:2512   */\n    tag_57:\n        /* \"#utility.yul\":2472:2479   */\n      0x00\n        /* \"#utility.yul\":2501:2506   */\n      dup2\n        /* \"#utility.yul\":2490:2506   */\n      swap1\n      pop\n        /* \"#utility.yul\":2435:2512   */\n      swap2\n      swap1\n      pop\n      jump\t// out\n        /* \"#utility.yul\":2518:2636   */\n    tag_58:\n        /* \"#utility.yul\":2605:2629   */\n      tag_95\n        /* \"#utility.yul\":2623:2628   */\n      dup2\n        /* \"#utility.yul\":2605:2629   */\n      tag_57\n      jump\t// in\n    tag_95:\n        /* \"#utility.yul\":2600:2603   */\n      dup3\n        /* \"#utility.yul\":2593:2630   */\n      mstore\n        /* \"#utility.yul\":2518:2636   */\n      pop\n      pop\n      jump\t// out\n        /* \"#utility.yul\":2642:2864   */\n    tag_26:\n        /* \"#utility.yul\":2735:2739   */\n      0x00\n        /* \"#utility.yul\":2773:2775   */\n      0x20\n        /* \"#utility.yul\":2762:2771   */\n      dup3\n        /* \"#utility.yul\":2758:2776   */\n      add\n        /* \"#utility.yul\":2750:2776   */\n      swap1\n      pop\n        /* \"#utility.yul\":2786:2857   */\n      tag_97\n        /* \"#utility.yul\":2854:2855   */\n      0x00\n        /* \"#utility.yul\":2843:2852   */\n      dup4\n        /* \"#utility.yul\":2839:2856   */\n      add\n        /* \"#utility.yul\":2830:2836   */\n      dup5\n        /* \"#utility.yul\":2786:2857   */\n      tag_58\n      jump\t// in\n    tag_97:\n        /* \"#utility.yul\":2642:2864   */\n      swap3\n      swap2\n      pop\n      pop\n      jump\t// out\n        /* \"#utility.yul\":2870:2959   */\n    tag_59:\n        /* \"#utility.yul\":2904:2911   */\n      0x00\n        /* \"#utility.yul\":2947:2952   */\n      dup2\n        /* \"#utility.yul\":2944:2945   */\n      0x00\n        /* \"#utility.yul\":2933:2953   */\n      signextend\n        /* \"#utility.yul\":2922:2953   */\n      swap1\n      pop\n        /* \"#utility.yul\":2870:2959   */\n      swap2\n      swap1\n      pop\n      jump\t// out\n        /* \"#utility.yul\":2965:3074   */\n    tag_60:\n        /* \"#utility.yul\":3046:3067   */\n      tag_100\n        /* \"#utility.yul\":3061:3066   */\n      dup2\n        /* \"#utility.yul\":3046:3067   */\n      tag_59\n      jump\t// in\n    tag_100:\n        /* \"#utility.yul\":3041:3044   */\n      dup3\n        /* \"#utility.yul\":3034:3068   */\n      mstore\n        /* \"#utility.yul\":2965:3074   */\n      pop\n      pop\n      jump\t// out\n        /* \"#utility.yul\":3080:3290   */\n    tag_30:\n        /* \"#utility.yul\":3167:3171   */\n      0x00\n        /* \"#utility.yul\":3205:3207   */\n      0x20\n        /* \"#utility.yul\":3194:3203   */\n      dup3\n        /* \"#utility.yul\":3190:3208   */\n      add\n        /* \"#utility.yul\":3182:3208   */\n      swap1\n      pop\n        /* \"#utility.yul\":3218:3283   */\n      tag_102\n        /* \"#utility.yul\":3280:3281   */\n      0x00\n        /* \"#utility.yul\":3269:3278   */\n      dup4\n        /* \"#utility.yul\":3265:3282   */\n      add\n        /* \"#utility.yul\":3256:3262   */\n      dup5\n        /* \"#utility.yul\":3218:3283   */\n      tag_60\n      jump\t// in\n    tag_102:\n        /* \"#utility.yul\":3080:3290   */\n      swap3\n      swap2\n      pop\n      pop\n      jump\t// out\n        /* \"#utility.yul\":3296:3372   */\n    tag_61:\n        /* \"#utility.yul\":3332:3339   */\n      0x00\n        /* \"#utility.yul\":3361:3366   */\n      dup2\n        /* \"#utility.yul\":3350:3366   */\n      swap1\n      pop\n        /* \"#utility.yul\":3296:3372   */\n      swap2\n      swap1\n      pop\n      jump\t// out\n        /* \"#utility.yul\":3378:3493   */\n    tag_62:\n        /* \"#utility.yul\":3463:3486   */\n      tag_105\n        /* \"#utility.yul\":3480:3485   */\n      dup2\n        /* \"#utility.yul\":3463:3486   */\n      tag_61\n      jump\t// in\n    tag_105:\n        /* \"#utility.yul\":3458:3461   */\n      dup3\n        /* \"#utility.yul\":3451:3487   */\n      mstore\n        /* \"#utility.yul\":3378:3493   */\n      pop\n      pop\n      jump\t// out\n        /* \"#utility.yul\":3499:3717   */\n    tag_34:\n        /* \"#utility.yul\":3590:3594   */\n      0x00\n        /* \"#utility.yul\":3628:3630   */\n      0x20\n        /* \"#utility.yul\":3617:3626   */\n      dup3\n        /* \"#utility.yul\":3613:3631   */\n      add\n        /* \"#utility.yul\":3605:3631   */\n      swap1\n      pop\n        /* \"#utility.yul\":3641:3710   */\n      tag_107\n        /* \"#utility.yul\":3707:3708   */\n      0x00\n        /* \"#utility.yul\":3696:3705   */\n      dup4\n        /* \"#utility.yul\":3692:3709   */\n      add\n        /* \"#utility.yul\":3683:3689   */\n      dup5\n        /* \"#utility.yul\":3641:3710   */\n      tag_62\n      jump\t// in\n    tag_107:\n        /* \"#utility.yul\":3499:3717   */\n      swap3\n      swap2\n      pop\n      pop\n      jump\t// out\n        /* \"#utility.yul\":3723:3809   */\n    tag_63:\n        /* \"#utility.yul\":3758:3765   */\n      0x00\n        /* \"#utility.yul\":3798:3802   */\n      0xff\n        /* \"#utility.yul\":3791:3796   */\n      dup3\n        /* \"#utility.yul\":3787:3803   */\n      and\n        /* \"#utility.yul\":3776:3803   */\n      swap1\n      pop\n        /* \"#utility.yul\":3723:3809   */\n      swap2\n      swap1\n      pop\n      jump\t// out\n        /* \"#utility.yul\":3815:3927   */\n    tag_64:\n        /* \"#utility.yul\":3898:3920   */\n      tag_110\n        /* \"#utility.yul\":3914:3919   */\n      dup2\n        /* \"#utility.yul\":3898:3920   */\n      tag_63\n      jump\t// in\n    tag_110:\n        /* \"#utility.yul\":3893:3896   */\n      dup3\n        /* \"#utility.yul\":3886:3921   */\n      mstore\n        /* \"#utility.yul\":3815:3927   */\n      pop\n      pop\n      jump\t// out\n        /* \"#utility.yul\":3933:4147   */\n    tag_38:\n        /* \"#utility.yul\":4022:4026   */\n      0x00\n        /* \"#utility.yul\":4060:4062   */\n      0x20\n        /* \"#utility.yul\":4049:4058   */\n      dup3\n        /* \"#utility.yul\":4045:4063   */\n      add\n        /* \"#utility.yul\":4037:4063   */\n      swap1\n      pop\n        /* \"#utility.yul\":4073:4140   */\n      tag_112\n        /* \"#utility.yul\":4137:4138   */\n      0x00\n        /* \"#utility.yul\":4126:4135   */\n      dup4\n        /* \"#utility.yul\":4122:4139   */\n      add\n        /* \"#utility.yul\":4113:4119   */\n      dup5\n        /* \"#utility.yul\":4073:4140   */\n      tag_64\n      jump\t// in\n    tag_112:\n        /* \"#utility.yul\":3933:4147   */\n      swap3\n      swap2\n      pop\n      pop\n      jump\t// out\n        /* \"#utility.yul\":4153:4333   */\n    tag_65:\n        /* \"#utility.yul\":4201:4278   */\n      0x4e487b7100000000000000000000000000000000000000000000000000000000\n        /* \"#utility.yul\":4198:4199   */\n      0x00\n        /* \"#utility.yul\":4191:4279   */\n      mstore\n        /* \"#utility.yul\":4298:4302   */\n      0x22\n        /* \"#utility.yul\":4295:4296   */\n      0x04\n        /* \"#utility.yul\":4288:4303   */\n      mstore\n        /* \"#utility.yul\":4322:4326   */\n      0x24\n        /* \"#utility.yul\":4319:4320   */\n      0x00\n        /* \"#utility.yul\":4312:4327   */\n      revert\n        /* \"#utility.yul\":4339:4659   */\n    tag_42:\n        /* \"#utility.yul\":4383:4389   */\n      0x00\n        /* \"#utility.yul\":4420:4421   */\n      0x02\n        /* \"#utility.yul\":4414:4418   */\n      dup3\n        /* \"#utility.yul\":4410:4422   */\n      div\n        /* \"#utility.yul\":4400:4422   */\n      swap1\n      pop\n        /* \"#utility.yul\":4467:4468   */\n      0x01\n        /* \"#utility.yul\":4461:4465   */\n      dup3\n        /* \"#utility.yul\":4457:4469   */\n      and\n        /* \"#utility.yul\":4488:4506   */\n      dup1\n        /* \"#utility.yul\":4478:4559   */\n      tag_115\n      jumpi\n        /* \"#utility.yul\":4544:4548   */\n      0x7f\n        /* \"#utility.yul\":4536:4542   */\n      dup3\n        /* \"#utility.yul\":4532:4549   */\n      and\n        /* \"#utility.yul\":4522:4549   */\n      swap2\n      pop\n        /* \"#utility.yul\":4478:4559   */\n    tag_115:\n        /* \"#utility.yul\":4606:4608   */\n      0x20\n        /* \"#utility.yul\":4598:4604   */\n      dup3\n        /* \"#utility.yul\":4595:4609   */\n      lt\n        /* \"#utility.yul\":4575:4593   */\n      dup2\n        /* \"#utility.yul\":4572:4610   */\n      sub\n        /* \"#utility.yul\":4569:4653   */\n      tag_116\n      jumpi\n        /* \"#utility.yul\":4625:4643   */\n      tag_117\n      tag_65\n      jump\t// in\n    tag_117:\n        /* \"#utility.yul\":4569:4653   */\n    tag_116:\n        /* \"#utility.yul\":4390:4659   */\n      pop\n        /* \"#utility.yul\":4339:4659   */\n      swap2\n      swap1\n      pop\n      jump\t// out\n\n    auxdata: 0xa264697066735822122055e8c4bffe86008b17239de7a26dc1aaf1daef2040971600336160be9847769d64736f6c63430008180033\n}\n",
				"bytecode": {
					"linkReferences": {},
					"object": "60806040526001805f6101000a81548160ff021916908360ff16021790555060ea6002557fffffffffffffffffffffffffffffffffffffffffffffffffffffffffffffffff60035f6101000a81548160ff02191690835f0b60ff1602179055506101c860045573598af29d0d00d2ce33d6e12b0e43fb2742da209060055f6101000a81548173ffffffffffffffffffffffffffffffffffffffff021916908373ffffffffffffffffffffffffffffffffffffffff16021790555060b560f81b600560146101000a81548160ff021916908360f81c0217905550605660f81b600560156101000a81548160ff021916908360f81c021790555034801562000103575f80fd5b5060405162000c2038038062000c208339818101604052810190620001299190620002e7565b806040516020016200013c9190620003cc565b6040516020818303038152906040525f90816200015a919062000633565b505062000717565b5f604051905090565b5f80fd5b5f80fd5b5f80fd5b5f80fd5b5f601f19601f8301169050919050565b7f4e487b71000000000000000000000000000000000000000000000000000000005f52604160045260245ffd5b620001c3826200017b565b810181811067ffffffffffffffff82111715620001e557620001e46200018b565b5b80604052505050565b5f620001f962000162565b9050620002078282620001b8565b919050565b5f67ffffffffffffffff8211156200022957620002286200018b565b5b62000234826200017b565b9050602081019050919050565b5f5b838110156200026057808201518184015260208101905062000243565b5f8484015250505050565b5f620002816200027b846200020c565b620001ee565b905082815260208101848484011115620002a0576200029f62000177565b5b620002ad84828562000241565b509392505050565b5f82601f830112620002cc57620002cb62000173565b5b8151620002de8482602086016200026b565b91505092915050565b5f60208284031215620002ff57620002fe6200016b565b5b5f82015167ffffffffffffffff8111156200031f576200031e6200016f565b5b6200032d84828501620002b5565b91505092915050565b7f4a6f68616e000000000000000000000000000000000000000000000000000000815250565b7f2000000000000000000000000000000000000000000000000000000000000000815250565b5f81519050919050565b5f81905092915050565b5f620003a28262000382565b620003ae81856200038c565b9350620003c081856020860162000241565b80840191505092915050565b5f620003d88262000336565b600582019150620003e9826200035c565b600182019150620003fb828462000396565b915081905092915050565b7f4e487b71000000000000000000000000000000000000000000000000000000005f52602260045260245ffd5b5f60028204905060018216806200044b57607f821691505b60208210810362000461576200046062000406565b5b50919050565b5f819050815f5260205f209050919050565b5f6020601f8301049050919050565b5f82821b905092915050565b5f60088302620004c57fffffffffffffffffffffffffffffffffffffffffffffffffffffffffffffffff8262000488565b620004d1868362000488565b95508019841693508086168417925050509392505050565b5f819050919050565b5f819050919050565b5f6200051b620005156200050f84620004e9565b620004f2565b620004e9565b9050919050565b5f819050919050565b6200053683620004fb565b6200054e620005458262000522565b84845462000494565b825550505050565b5f90565b6200056462000556565b620005718184846200052b565b505050565b5b8181101562000598576200058c5f826200055a565b60018101905062000577565b5050565b601f821115620005e757620005b18162000467565b620005bc8462000479565b81016020851015620005cc578190505b620005e4620005db8562000479565b83018262000576565b50505b505050565b5f82821c905092915050565b5f620006095f1984600802620005ec565b1980831691505092915050565b5f620006238383620005f8565b9150826002028217905092915050565b6200063e8262000382565b67ffffffffffffffff8111156200065a57620006596200018b565b5b62000666825462000433565b620006738282856200059c565b5f60209050601f831160018114620006a9575f841562000694578287015190505b620006a0858262000616565b8655506200070f565b601f198416620006b98662000467565b5f5b82811015620006e257848901518255600182019150602085019450602081019050620006bb565b86831015620007025784890151620006fe601f891682620005f8565b8355505b6001600288020188555050505b505050505050565b6104fb80620007255f395ff3fe608060405234801561000f575f80fd5b506004361061007b575f3560e01c8063ce410d5311610059578063ce410d53146100d9578063df77a62e146100f7578063f7ae917114610115578063f950fc6d146101335761007b565b80630bcd3b331461007f57806317d7de7c1461009d57806338304639146100bb575b5f80fd5b610087610151565b6040516100949190610284565b60405180910390f35b6100a5610167565b6040516100b29190610327565b60405180910390f35b6100c36101f6565b6040516100d09190610386565b60405180910390f35b6100e161021b565b6040516100ee91906103b7565b60405180910390f35b6100ff610221565b60405161010c91906103ea565b60405180910390f35b61011d610232565b60405161012a919061041b565b60405180910390f35b61013b610238565b604051610148919061044f565b60405180910390f35b5f600560169054906101000a900460f81b905090565b60605f805461017590610495565b80601f01602080910402602001604051908101604052809291908181526020018280546101a190610495565b80156101ec5780601f106101c3576101008083540402835291602001916101ec565b820191905f5260205f20905b8154815290600101906020018083116101cf57829003601f168201915b5050505050905090565b60055f9054906101000a900473ffffffffffffffffffffffffffffffffffffffff1681565b60025481565b60035f9054906101000a90045f0b81565b60045481565b60015f9054906101000a900460ff1681565b5f7fff0000000000000000000000000000000000000000000000000000000000000082169050919050565b61027e8161024a565b82525050565b5f6020820190506102975f830184610275565b92915050565b5f81519050919050565b5f82825260208201905092915050565b5f5b838110156102d45780820151818401526020810190506102b9565b5f8484015250505050565b5f601f19601f8301169050919050565b5f6102f98261029d565b61030381856102a7565b93506103138185602086016102b7565b61031c816102df565b840191505092915050565b5f6020820190508181035f83015261033f81846102ef565b905092915050565b5f73ffffffffffffffffffffffffffffffffffffffff82169050919050565b5f61037082610347565b9050919050565b61038081610366565b82525050565b5f6020820190506103995f830184610377565b92915050565b5f819050919050565b6103b18161039f565b82525050565b5f6020820190506103ca5f8301846103a8565b92915050565b5f815f0b9050919050565b6103e4816103d0565b82525050565b5f6020820190506103fd5f8301846103db565b92915050565b5f819050919050565b61041581610403565b82525050565b5f60208201905061042e5f83018461040c565b92915050565b5f60ff82169050919050565b61044981610434565b82525050565b5f6020820190506104625f830184610440565b92915050565b7f4e487b71000000000000000000000000000000000000000000000000000000005f52602260045260245ffd5b5f60028204905060018216806104ac57607f821691505b6020821081036104bf576104be610468565b5b5091905056fea264697066735822122055e8c4bffe86008b17239de7a26dc1aaf1daef2040971600336160be9847769d64736f6c63430008180033",
					"opcodes": "PUSH1 0x80 PUSH1 0x40 MSTORE PUSH1 0x1 DUP1 PUSH0 PUSH2 0x100 EXP DUP2 SLOAD DUP2 PUSH1 0xFF MUL NOT AND SWAP1 DUP4 PUSH1 0xFF AND MUL OR SWAP1 SSTORE POP PUSH1 0xEA PUSH1 0x2 SSTORE PUSH32 0xFFFFFFFFFFFFFFFFFFFFFFFFFFFFFFFFFFFFFFFFFFFFFFFFFFFFFFFFFFFFFFFF PUSH1 0x3 PUSH0 PUSH2 0x100 EXP DUP2 SLOAD DUP2 PUSH1 0xFF MUL NOT AND SWAP1 DUP4 PUSH0 SIGNEXTEND PUSH1 0xFF AND MUL OR SWAP1 SSTORE POP PUSH2 0x1C8 PUSH1 0x4 SSTORE PUSH20 0x598AF29D0D00D2CE33D6E12B0E43FB2742DA2090 PUSH1 0x5 PUSH0 PUSH2 0x100 EXP DUP2 SLOAD DUP2 PUSH20 0xFFFFFFFFFFFFFFFFFFFFFFFFFFFFFFFFFFFFFFFF MUL NOT AND SWAP1 DUP4 PUSH20 0xFFFFFFFFFFFFFFFFFFFFFFFFFFFFFFFFFFFFFFFF AND MUL OR SWAP1 SSTORE POP PUSH1 0xB5 PUSH1 0xF8 SHL PUSH1 0x5 PUSH1 0x14 PUSH2 0x100 EXP DUP2 SLOAD DUP2 PUSH1 0xFF MUL NOT AND SWAP1 DUP4 PUSH1 0xF8 SHR MUL OR SWAP1 SSTORE POP PUSH1 0x56 PUSH1 0xF8 SHL PUSH1 0x5 PUSH1 0x15 PUSH2 0x100 EXP DUP2 SLOAD DUP2 PUSH1 0xFF MUL NOT AND SWAP1 DUP4 PUSH1 0xF8 SHR MUL OR SWAP1 SSTORE POP CALLVALUE DUP1 ISZERO PUSH3 0x103 JUMPI PUSH0 DUP1 REVERT JUMPDEST POP PUSH1 0x40 MLOAD PUSH3 0xC20 CODESIZE SUB DUP1 PUSH3 0xC20 DUP4 CODECOPY DUP2 DUP2 ADD PUSH1 0x40 MSTORE DUP2 ADD SWAP1 PUSH3 0x129 SWAP2 SWAP1 PUSH3 0x2E7 JUMP JUMPDEST DUP1 PUSH1 0x40 MLOAD PUSH1 0x20 ADD PUSH3 0x13C SWAP2 SWAP1 PUSH3 0x3CC JUMP JUMPDEST PUSH1 0x40 MLOAD PUSH1 0x20 DUP2 DUP4 SUB SUB DUP2 MSTORE SWAP1 PUSH1 0x40 MSTORE PUSH0 SWAP1 DUP2 PUSH3 0x15A SWAP2 SWAP1 PUSH3 0x633 JUMP JUMPDEST POP POP PUSH3 0x717 JUMP JUMPDEST PUSH0 PUSH1 0x40 MLOAD SWAP1 POP SWAP1 JUMP JUMPDEST PUSH0 DUP1 REVERT JUMPDEST PUSH0 DUP1 REVERT JUMPDEST PUSH0 DUP1 REVERT JUMPDEST PUSH0 DUP1 REVERT JUMPDEST PUSH0 PUSH1 0x1F NOT PUSH1 0x1F DUP4 ADD AND SWAP1 POP SWAP2 SWAP1 POP JUMP JUMPDEST PUSH32 0x4E487B7100000000000000000000000000000000000000000000000000000000 PUSH0 MSTORE PUSH1 0x41 PUSH1 0x4 MSTORE PUSH1 0x24 PUSH0 REVERT JUMPDEST PUSH3 0x1C3 DUP3 PUSH3 0x17B JUMP JUMPDEST DUP2 ADD DUP2 DUP2 LT PUSH8 0xFFFFFFFFFFFFFFFF DUP3 GT OR ISZERO PUSH3 0x1E5 JUMPI PUSH3 0x1E4 PUSH3 0x18B JUMP JUMPDEST JUMPDEST DUP1 PUSH1 0x40 MSTORE POP POP POP JUMP JUMPDEST PUSH0 PUSH3 0x1F9 PUSH3 0x162 JUMP JUMPDEST SWAP1 POP PUSH3 0x207 DUP3 DUP3 PUSH3 0x1B8 JUMP JUMPDEST SWAP2 SWAP1 POP JUMP JUMPDEST PUSH0 PUSH8 0xFFFFFFFFFFFFFFFF DUP3 GT ISZERO PUSH3 0x229 JUMPI PUSH3 0x228 PUSH3 0x18B JUMP JUMPDEST JUMPDEST PUSH3 0x234 DUP3 PUSH3 0x17B JUMP JUMPDEST SWAP1 POP PUSH1 0x20 DUP2 ADD SWAP1 POP SWAP2 SWAP1 POP JUMP JUMPDEST PUSH0 JUMPDEST DUP4 DUP2 LT ISZERO PUSH3 0x260 JUMPI DUP1 DUP3 ADD MLOAD DUP2 DUP5 ADD MSTORE PUSH1 0x20 DUP2 ADD SWAP1 POP PUSH3 0x243 JUMP JUMPDEST PUSH0 DUP5 DUP5 ADD MSTORE POP POP POP POP JUMP JUMPDEST PUSH0 PUSH3 0x281 PUSH3 0x27B DUP5 PUSH3 0x20C JUMP JUMPDEST PUSH3 0x1EE JUMP JUMPDEST SWAP1 POP DUP3 DUP2 MSTORE PUSH1 0x20 DUP2 ADD DUP5 DUP5 DUP5 ADD GT ISZERO PUSH3 0x2A0 JUMPI PUSH3 0x29F PUSH3 0x177 JUMP JUMPDEST JUMPDEST PUSH3 0x2AD DUP5 DUP3 DUP6 PUSH3 0x241 JUMP JUMPDEST POP SWAP4 SWAP3 POP POP POP JUMP JUMPDEST PUSH0 DUP3 PUSH1 0x1F DUP4 ADD SLT PUSH3 0x2CC JUMPI PUSH3 0x2CB PUSH3 0x173 JUMP JUMPDEST JUMPDEST DUP2 MLOAD PUSH3 0x2DE DUP5 DUP3 PUSH1 0x20 DUP7 ADD PUSH3 0x26B JUMP JUMPDEST SWAP2 POP POP SWAP3 SWAP2 POP POP JUMP JUMPDEST PUSH0 PUSH1 0x20 DUP3 DUP5 SUB SLT ISZERO PUSH3 0x2FF JUMPI PUSH3 0x2FE PUSH3 0x16B JUMP JUMPDEST JUMPDEST PUSH0 DUP3 ADD MLOAD PUSH8 0xFFFFFFFFFFFFFFFF DUP2 GT ISZERO PUSH3 0x31F JUMPI PUSH3 0x31E PUSH3 0x16F JUMP JUMPDEST JUMPDEST PUSH3 0x32D DUP5 DUP3 DUP6 ADD PUSH3 0x2B5 JUMP JUMPDEST SWAP2 POP POP SWAP3 SWAP2 POP POP JUMP JUMPDEST PUSH32 0x4A6F68616E000000000000000000000000000000000000000000000000000000 DUP2 MSTORE POP JUMP JUMPDEST PUSH32 0x2000000000000000000000000000000000000000000000000000000000000000 DUP2 MSTORE POP JUMP JUMPDEST PUSH0 DUP2 MLOAD SWAP1 POP SWAP2 SWAP1 POP JUMP JUMPDEST PUSH0 DUP2 SWAP1 POP SWAP3 SWAP2 POP POP JUMP JUMPDEST PUSH0 PUSH3 0x3A2 DUP3 PUSH3 0x382 JUMP JUMPDEST PUSH3 0x3AE DUP2 DUP6 PUSH3 0x38C JUMP JUMPDEST SWAP4 POP PUSH3 0x3C0 DUP2 DUP6 PUSH1 0x20 DUP7 ADD PUSH3 0x241 JUMP JUMPDEST DUP1 DUP5 ADD SWAP2 POP POP SWAP3 SWAP2 POP POP JUMP JUMPDEST PUSH0 PUSH3 0x3D8 DUP3 PUSH3 0x336 JUMP JUMPDEST PUSH1 0x5 DUP3 ADD SWAP2 POP PUSH3 0x3E9 DUP3 PUSH3 0x35C JUMP JUMPDEST PUSH1 0x1 DUP3 ADD SWAP2 POP PUSH3 0x3FB DUP3 DUP5 PUSH3 0x396 JUMP JUMPDEST SWAP2 POP DUP2 SWAP1 POP SWAP3 SWAP2 POP POP JUMP JUMPDEST PUSH32 0x4E487B7100000000000000000000000000000000000000000000000000000000 PUSH0 MSTORE PUSH1 0x22 PUSH1 0x4 MSTORE PUSH1 0x24 PUSH0 REVERT JUMPDEST PUSH0 PUSH1 0x2 DUP3 DIV SWAP1 POP PUSH1 0x1 DUP3 AND DUP1 PUSH3 0x44B JUMPI PUSH1 0x7F DUP3 AND SWAP2 POP JUMPDEST PUSH1 0x20 DUP3 LT DUP2 SUB PUSH3 0x461 JUMPI PUSH3 0x460 PUSH3 0x406 JUMP JUMPDEST JUMPDEST POP SWAP2 SWAP1 POP JUMP JUMPDEST PUSH0 DUP2 SWAP1 POP DUP2 PUSH0 MSTORE PUSH1 0x20 PUSH0 KECCAK256 SWAP1 POP SWAP2 SWAP1 POP JUMP JUMPDEST PUSH0 PUSH1 0x20 PUSH1 0x1F DUP4 ADD DIV SWAP1 POP SWAP2 SWAP1 POP JUMP JUMPDEST PUSH0 DUP3 DUP3 SHL SWAP1 POP SWAP3 SWAP2 POP POP JUMP JUMPDEST PUSH0 PUSH1 0x8 DUP4 MUL PUSH3 0x4C5 PUSH32 0xFFFFFFFFFFFFFFFFFFFFFFFFFFFFFFFFFFFFFFFFFFFFFFFFFFFFFFFFFFFFFFFF DUP3 PUSH3 0x488 JUMP JUMPDEST PUSH3 0x4D1 DUP7 DUP4 PUSH3 0x488 JUMP JUMPDEST SWAP6 POP DUP1 NOT DUP5 AND SWAP4 POP DUP1 DUP7 AND DUP5 OR SWAP3 POP POP POP SWAP4 SWAP3 POP POP POP JUMP JUMPDEST PUSH0 DUP2 SWAP1 POP SWAP2 SWAP1 POP JUMP JUMPDEST PUSH0 DUP2 SWAP1 POP SWAP2 SWAP1 POP JUMP JUMPDEST PUSH0 PUSH3 0x51B PUSH3 0x515 PUSH3 0x50F DUP5 PUSH3 0x4E9 JUMP JUMPDEST PUSH3 0x4F2 JUMP JUMPDEST PUSH3 0x4E9 JUMP JUMPDEST SWAP1 POP SWAP2 SWAP1 POP JUMP JUMPDEST PUSH0 DUP2 SWAP1 POP SWAP2 SWAP1 POP JUMP JUMPDEST PUSH3 0x536 DUP4 PUSH3 0x4FB JUMP JUMPDEST PUSH3 0x54E PUSH3 0x545 DUP3 PUSH3 0x522 JUMP JUMPDEST DUP5 DUP5 SLOAD PUSH3 0x494 JUMP JUMPDEST DUP3 SSTORE POP POP POP POP JUMP JUMPDEST PUSH0 SWAP1 JUMP JUMPDEST PUSH3 0x564 PUSH3 0x556 JUMP JUMPDEST PUSH3 0x571 DUP2 DUP5 DUP5 PUSH3 0x52B JUMP JUMPDEST POP POP POP JUMP JUMPDEST JUMPDEST DUP2 DUP2 LT ISZERO PUSH3 0x598 JUMPI PUSH3 0x58C PUSH0 DUP3 PUSH3 0x55A JUMP JUMPDEST PUSH1 0x1 DUP2 ADD SWAP1 POP PUSH3 0x577 JUMP JUMPDEST POP POP JUMP JUMPDEST PUSH1 0x1F DUP3 GT ISZERO PUSH3 0x5E7 JUMPI PUSH3 0x5B1 DUP2 PUSH3 0x467 JUMP JUMPDEST PUSH3 0x5BC DUP5 PUSH3 0x479 JUMP JUMPDEST DUP2 ADD PUSH1 0x20 DUP6 LT ISZERO PUSH3 0x5CC JUMPI DUP2 SWAP1 POP JUMPDEST PUSH3 0x5E4 PUSH3 0x5DB DUP6 PUSH3 0x479 JUMP JUMPDEST DUP4 ADD DUP3 PUSH3 0x576 JUMP JUMPDEST POP POP JUMPDEST POP POP POP JUMP JUMPDEST PUSH0 DUP3 DUP3 SHR SWAP1 POP SWAP3 SWAP2 POP POP JUMP JUMPDEST PUSH0 PUSH3 0x609 PUSH0 NOT DUP5 PUSH1 0x8 MUL PUSH3 0x5EC JUMP JUMPDEST NOT DUP1 DUP4 AND SWAP2 POP POP SWAP3 SWAP2 POP POP JUMP JUMPDEST PUSH0 PUSH3 0x623 DUP4 DUP4 PUSH3 0x5F8 JUMP JUMPDEST SWAP2 POP DUP3 PUSH1 0x2 MUL DUP3 OR SWAP1 POP SWAP3 SWAP2 POP POP JUMP JUMPDEST PUSH3 0x63E DUP3 PUSH3 0x382 JUMP JUMPDEST PUSH8 0xFFFFFFFFFFFFFFFF DUP2 GT ISZERO PUSH3 0x65A JUMPI PUSH3 0x659 PUSH3 0x18B JUMP JUMPDEST JUMPDEST PUSH3 0x666 DUP3 SLOAD PUSH3 0x433 JUMP JUMPDEST PUSH3 0x673 DUP3 DUP3 DUP6 PUSH3 0x59C JUMP JUMPDEST PUSH0 PUSH1 0x20 SWAP1 POP PUSH1 0x1F DUP4 GT PUSH1 0x1 DUP2 EQ PUSH3 0x6A9 JUMPI PUSH0 DUP5 ISZERO PUSH3 0x694 JUMPI DUP3 DUP8 ADD MLOAD SWAP1 POP JUMPDEST PUSH3 0x6A0 DUP6 DUP3 PUSH3 0x616 JUMP JUMPDEST DUP7 SSTORE POP PUSH3 0x70F JUMP JUMPDEST PUSH1 0x1F NOT DUP5 AND PUSH3 0x6B9 DUP7 PUSH3 0x467 JUMP JUMPDEST PUSH0 JUMPDEST DUP3 DUP2 LT ISZERO PUSH3 0x6E2 JUMPI DUP5 DUP10 ADD MLOAD DUP3 SSTORE PUSH1 0x1 DUP3 ADD SWAP2 POP PUSH1 0x20 DUP6 ADD SWAP5 POP PUSH1 0x20 DUP2 ADD SWAP1 POP PUSH3 0x6BB JUMP JUMPDEST DUP7 DUP4 LT ISZERO PUSH3 0x702 JUMPI DUP5 DUP10 ADD MLOAD PUSH3 0x6FE PUSH1 0x1F DUP10 AND DUP3 PUSH3 0x5F8 JUMP JUMPDEST DUP4 SSTORE POP JUMPDEST PUSH1 0x1 PUSH1 0x2 DUP9 MUL ADD DUP9 SSTORE POP POP POP JUMPDEST POP POP POP POP POP POP JUMP JUMPDEST PUSH2 0x4FB DUP1 PUSH3 0x725 PUSH0 CODECOPY PUSH0 RETURN INVALID PUSH1 0x80 PUSH1 0x40 MSTORE CALLVALUE DUP1 ISZERO PUSH2 0xF JUMPI PUSH0 DUP1 REVERT JUMPDEST POP PUSH1 0x4 CALLDATASIZE LT PUSH2 0x7B JUMPI PUSH0 CALLDATALOAD PUSH1 0xE0 SHR DUP1 PUSH4 0xCE410D53 GT PUSH2 0x59 JUMPI DUP1 PUSH4 0xCE410D53 EQ PUSH2 0xD9 JUMPI DUP1 PUSH4 0xDF77A62E EQ PUSH2 0xF7 JUMPI DUP1 PUSH4 0xF7AE9171 EQ PUSH2 0x115 JUMPI DUP1 PUSH4 0xF950FC6D EQ PUSH2 0x133 JUMPI PUSH2 0x7B JUMP JUMPDEST DUP1 PUSH4 0xBCD3B33 EQ PUSH2 0x7F JUMPI DUP1 PUSH4 0x17D7DE7C EQ PUSH2 0x9D JUMPI DUP1 PUSH4 0x38304639 EQ PUSH2 0xBB JUMPI JUMPDEST PUSH0 DUP1 REVERT JUMPDEST PUSH2 0x87 PUSH2 0x151 JUMP JUMPDEST PUSH1 0x40 MLOAD PUSH2 0x94 SWAP2 SWAP1 PUSH2 0x284 JUMP JUMPDEST PUSH1 0x40 MLOAD DUP1 SWAP2 SUB SWAP1 RETURN JUMPDEST PUSH2 0xA5 PUSH2 0x167 JUMP JUMPDEST PUSH1 0x40 MLOAD PUSH2 0xB2 SWAP2 SWAP1 PUSH2 0x327 JUMP JUMPDEST PUSH1 0x40 MLOAD DUP1 SWAP2 SUB SWAP1 RETURN JUMPDEST PUSH2 0xC3 PUSH2 0x1F6 JUMP JUMPDEST PUSH1 0x40 MLOAD PUSH2 0xD0 SWAP2 SWAP1 PUSH2 0x386 JUMP JUMPDEST PUSH1 0x40 MLOAD DUP1 SWAP2 SUB SWAP1 RETURN JUMPDEST PUSH2 0xE1 PUSH2 0x21B JUMP JUMPDEST PUSH1 0x40 MLOAD PUSH2 0xEE SWAP2 SWAP1 PUSH2 0x3B7 JUMP JUMPDEST PUSH1 0x40 MLOAD DUP1 SWAP2 SUB SWAP1 RETURN JUMPDEST PUSH2 0xFF PUSH2 0x221 JUMP JUMPDEST PUSH1 0x40 MLOAD PUSH2 0x10C SWAP2 SWAP1 PUSH2 0x3EA JUMP JUMPDEST PUSH1 0x40 MLOAD DUP1 SWAP2 SUB SWAP1 RETURN JUMPDEST PUSH2 0x11D PUSH2 0x232 JUMP JUMPDEST PUSH1 0x40 MLOAD PUSH2 0x12A SWAP2 SWAP1 PUSH2 0x41B JUMP JUMPDEST PUSH1 0x40 MLOAD DUP1 SWAP2 SUB SWAP1 RETURN JUMPDEST PUSH2 0x13B PUSH2 0x238 JUMP JUMPDEST PUSH1 0x40 MLOAD PUSH2 0x148 SWAP2 SWAP1 PUSH2 0x44F JUMP JUMPDEST PUSH1 0x40 MLOAD DUP1 SWAP2 SUB SWAP1 RETURN JUMPDEST PUSH0 PUSH1 0x5 PUSH1 0x16 SWAP1 SLOAD SWAP1 PUSH2 0x100 EXP SWAP1 DIV PUSH1 0xF8 SHL SWAP1 POP SWAP1 JUMP JUMPDEST PUSH1 0x60 PUSH0 DUP1 SLOAD PUSH2 0x175 SWAP1 PUSH2 0x495 JUMP JUMPDEST DUP1 PUSH1 0x1F ADD PUSH1 0x20 DUP1 SWAP2 DIV MUL PUSH1 0x20 ADD PUSH1 0x40 MLOAD SWAP1 DUP2 ADD PUSH1 0x40 MSTORE DUP1 SWAP3 SWAP2 SWAP1 DUP2 DUP2 MSTORE PUSH1 0x20 ADD DUP3 DUP1 SLOAD PUSH2 0x1A1 SWAP1 PUSH2 0x495 JUMP JUMPDEST DUP1 ISZERO PUSH2 0x1EC JUMPI DUP1 PUSH1 0x1F LT PUSH2 0x1C3 JUMPI PUSH2 0x100 DUP1 DUP4 SLOAD DIV MUL DUP4 MSTORE SWAP2 PUSH1 0x20 ADD SWAP2 PUSH2 0x1EC JUMP JUMPDEST DUP3 ADD SWAP2 SWAP1 PUSH0 MSTORE PUSH1 0x20 PUSH0 KECCAK256 SWAP1 JUMPDEST DUP2 SLOAD DUP2 MSTORE SWAP1 PUSH1 0x1 ADD SWAP1 PUSH1 0x20 ADD DUP1 DUP4 GT PUSH2 0x1CF JUMPI DUP3 SWAP1 SUB PUSH1 0x1F AND DUP3 ADD SWAP2 JUMPDEST POP POP POP POP POP SWAP1 POP SWAP1 JUMP JUMPDEST PUSH1 0x5 PUSH0 SWAP1 SLOAD SWAP1 PUSH2 0x100 EXP SWAP1 DIV PUSH20 0xFFFFFFFFFFFFFFFFFFFFFFFFFFFFFFFFFFFFFFFF AND DUP2 JUMP JUMPDEST PUSH1 0x2 SLOAD DUP2 JUMP JUMPDEST PUSH1 0x3 PUSH0 SWAP1 SLOAD SWAP1 PUSH2 0x100 EXP SWAP1 DIV PUSH0 SIGNEXTEND DUP2 JUMP JUMPDEST PUSH1 0x4 SLOAD DUP2 JUMP JUMPDEST PUSH1 0x1 PUSH0 SWAP1 SLOAD SWAP1 PUSH2 0x100 EXP SWAP1 DIV PUSH1 0xFF AND DUP2 JUMP JUMPDEST PUSH0 PUSH32 0xFF00000000000000000000000000000000000000000000000000000000000000 DUP3 AND SWAP1 POP SWAP2 SWAP1 POP JUMP JUMPDEST PUSH2 0x27E DUP2 PUSH2 0x24A JUMP JUMPDEST DUP3 MSTORE POP POP JUMP JUMPDEST PUSH0 PUSH1 0x20 DUP3 ADD SWAP1 POP PUSH2 0x297 PUSH0 DUP4 ADD DUP5 PUSH2 0x275 JUMP JUMPDEST SWAP3 SWAP2 POP POP JUMP JUMPDEST PUSH0 DUP2 MLOAD SWAP1 POP SWAP2 SWAP1 POP JUMP JUMPDEST PUSH0 DUP3 DUP3 MSTORE PUSH1 0x20 DUP3 ADD SWAP1 POP SWAP3 SWAP2 POP POP JUMP JUMPDEST PUSH0 JUMPDEST DUP4 DUP2 LT ISZERO PUSH2 0x2D4 JUMPI DUP1 DUP3 ADD MLOAD DUP2 DUP5 ADD MSTORE PUSH1 0x20 DUP2 ADD SWAP1 POP PUSH2 0x2B9 JUMP JUMPDEST PUSH0 DUP5 DUP5 ADD MSTORE POP POP POP POP JUMP JUMPDEST PUSH0 PUSH1 0x1F NOT PUSH1 0x1F DUP4 ADD AND SWAP1 POP SWAP2 SWAP1 POP JUMP JUMPDEST PUSH0 PUSH2 0x2F9 DUP3 PUSH2 0x29D JUMP JUMPDEST PUSH2 0x303 DUP2 DUP6 PUSH2 0x2A7 JUMP JUMPDEST SWAP4 POP PUSH2 0x313 DUP2 DUP6 PUSH1 0x20 DUP7 ADD PUSH2 0x2B7 JUMP JUMPDEST PUSH2 0x31C DUP2 PUSH2 0x2DF JUMP JUMPDEST DUP5 ADD SWAP2 POP POP SWAP3 SWAP2 POP POP JUMP JUMPDEST PUSH0 PUSH1 0x20 DUP3 ADD SWAP1 POP DUP2 DUP2 SUB PUSH0 DUP4 ADD MSTORE PUSH2 0x33F DUP2 DUP5 PUSH2 0x2EF JUMP JUMPDEST SWAP1 POP SWAP3 SWAP2 POP POP JUMP JUMPDEST PUSH0 PUSH20 0xFFFFFFFFFFFFFFFFFFFFFFFFFFFFFFFFFFFFFFFF DUP3 AND SWAP1 POP SWAP2 SWAP1 POP JUMP JUMPDEST PUSH0 PUSH2 0x370 DUP3 PUSH2 0x347 JUMP JUMPDEST SWAP1 POP SWAP2 SWAP1 POP JUMP JUMPDEST PUSH2 0x380 DUP2 PUSH2 0x366 JUMP JUMPDEST DUP3 MSTORE POP POP JUMP JUMPDEST PUSH0 PUSH1 0x20 DUP3 ADD SWAP1 POP PUSH2 0x399 PUSH0 DUP4 ADD DUP5 PUSH2 0x377 JUMP JUMPDEST SWAP3 SWAP2 POP POP JUMP JUMPDEST PUSH0 DUP2 SWAP1 POP SWAP2 SWAP1 POP JUMP JUMPDEST PUSH2 0x3B1 DUP2 PUSH2 0x39F JUMP JUMPDEST DUP3 MSTORE POP POP JUMP JUMPDEST PUSH0 PUSH1 0x20 DUP3 ADD SWAP1 POP PUSH2 0x3CA PUSH0 DUP4 ADD DUP5 PUSH2 0x3A8 JUMP JUMPDEST SWAP3 SWAP2 POP POP JUMP JUMPDEST PUSH0 DUP2 PUSH0 SIGNEXTEND SWAP1 POP SWAP2 SWAP1 POP JUMP JUMPDEST PUSH2 0x3E4 DUP2 PUSH2 0x3D0 JUMP JUMPDEST DUP3 MSTORE POP POP JUMP JUMPDEST PUSH0 PUSH1 0x20 DUP3 ADD SWAP1 POP PUSH2 0x3FD PUSH0 DUP4 ADD DUP5 PUSH2 0x3DB JUMP JUMPDEST SWAP3 SWAP2 POP POP JUMP JUMPDEST PUSH0 DUP2 SWAP1 POP SWAP2 SWAP1 POP JUMP JUMPDEST PUSH2 0x415 DUP2 PUSH2 0x403 JUMP JUMPDEST DUP3 MSTORE POP POP JUMP JUMPDEST PUSH0 PUSH1 0x20 DUP3 ADD SWAP1 POP PUSH2 0x42E PUSH0 DUP4 ADD DUP5 PUSH2 0x40C JUMP JUMPDEST SWAP3 SWAP2 POP POP JUMP JUMPDEST PUSH0 PUSH1 0xFF DUP3 AND SWAP1 POP SWAP2 SWAP1 POP JUMP JUMPDEST PUSH2 0x449 DUP2 PUSH2 0x434 JUMP JUMPDEST DUP3 MSTORE POP POP JUMP JUMPDEST PUSH0 PUSH1 0x20 DUP3 ADD SWAP1 POP PUSH2 0x462 PUSH0 DUP4 ADD DUP5 PUSH2 0x440 JUMP JUMPDEST SWAP3 SWAP2 POP POP JUMP JUMPDEST PUSH32 0x4E487B7100000000000000000000000000000000000000000000000000000000 PUSH0 MSTORE PUSH1 0x22 PUSH1 0x4 MSTORE PUSH1 0x24 PUSH0 REVERT JUMPDEST PUSH0 PUSH1 0x2 DUP3 DIV SWAP1 POP PUSH1 0x1 DUP3 AND DUP1 PUSH2 0x4AC JUMPI PUSH1 0x7F DUP3 AND SWAP2 POP JUMPDEST PUSH1 0x20 DUP3 LT DUP2 SUB PUSH2 0x4BF JUMPI PUSH2 0x4BE PUSH2 0x468 JUMP JUMPDEST JUMPDEST POP SWAP2 SWAP1 POP JUMP INVALID LOG2 PUSH5 0x6970667358 0x22 SLT KECCAK256 SSTORE 0xE8 0xC4 0xBF INVALID DUP7 STOP DUP12 OR 0x23 SWAP14 0xE7 LOG2 PUSH14 0xC1AAF1DAEF2040971600336160BE SWAP9 SELFBALANCE PUSH23 0x9D64736F6C634300081800330000000000000000000000 "
				},
				"gasEstimates": {
					"creation": {
						"codeDepositCost": "255000",
						"executionCost": "infinite",
						"totalCost": "infinite"
					},
					"external": {
						"address_var()": "2553",
						"getBytes()": "2525",
						"getName()": "infinite",
						"int_256()": "2469",
						"int_8()": "2490",
						"uint_256()": "2425",
						"uint_8()": "2532"
					}
				},
				"methodIdentifiers": {
					"address_var()": "38304639",
					"getBytes()": "0bcd3b33",
					"getName()": "17d7de7c",
					"int_256()": "f7ae9171",
					"int_8()": "df77a62e",
					"uint_256()": "ce410d53",
					"uint_8()": "f950fc6d"
				}
			},
			"storageLayout": {
				"storage": [
					{
						"astId": 3,
						"contract": "variables.sol:Variables_Nativas",
						"label": "fullName",
						"offset": 0,
						"slot": "0",
						"type": "t_string_storage"
					},
					{
						"astId": 30,
						"contract": "variables.sol:Variables_Nativas",
						"label": "uint_8",
						"offset": 0,
						"slot": "1",
						"type": "t_uint8"
					},
					{
						"astId": 33,
						"contract": "variables.sol:Variables_Nativas",
						"label": "uint_256",
						"offset": 0,
						"slot": "2",
						"type": "t_uint256"
					},
					{
						"astId": 37,
						"contract": "variables.sol:Variables_Nativas",
						"label": "int_8",
						"offset": 0,
						"slot": "3",
						"type": "t_int8"
					},
					{
						"astId": 40,
						"contract": "variables.sol:Variables_Nativas",
						"label": "int_256",
						"offset": 0,
						"slot": "4",
						"type": "t_int256"
					},
					{
						"astId": 43,
						"contract": "variables.sol:Variables_Nativas",
						"label": "address_var",
						"offset": 0,
						"slot": "5",
						"type": "t_address"
					},
					{
						"astId": 46,
						"contract": "variables.sol:Variables_Nativas",
						"label": "a_var",
						"offset": 20,
						"slot": "5",
						"type": "t_bytes1"
					},
					{
						"astId": 49,
						"contract": "variables.sol:Variables_Nativas",
						"label": "b_var",
						"offset": 21,
						"slot": "5",
						"type": "t_bytes1"
					},
					{
						"astId": 51,
						"contract": "variables.sol:Variables_Nativas",
						"label": "c_var",
						"offset": 22,
						"slot": "5",
						"type": "t_bytes1"
					}
				],
				"types": {
					"t_address": {
						"encoding": "inplace",
						"label": "address",
						"numberOfBytes": "20"
					},
					"t_bytes1": {
						"encoding": "inplace",
						"label": "bytes1",
						"numberOfBytes": "1"
					},
					"t_int256": {
						"encoding": "inplace",
						"label": "int256",
						"numberOfBytes": "32"
					},
					"t_int8": {
						"encoding": "inplace",
						"label": "int8",
						"numberOfBytes": "1"
					},
					"t_string_storage": {
						"encoding": "bytes",
						"label": "string",
						"numberOfBytes": "32"
					},
					"t_uint256": {
						"encoding": "inplace",
						"label": "uint256",
						"numberOfBytes": "32"
					},
					"t_uint8": {
						"encoding": "inplace",
						"label": "uint8",
						"numberOfBytes": "1"
					}
				}
			},
			"userdoc": {
				"kind": "user",
				"methods": {},
				"version": 1
			}
		}
	}
}